:020000040800F2
:100000001014002089010008E5010008E50100083E
:10001000E5010008E5010008E50100080000000016
:10002000000000000000000000000000E5010008E2
:10003000E501000800000000E5010008E5010008F6
:10004000E5010008E5010008E5010008E5010008F8
:10005000E5010008E5010008E5010008E5010008E8
:10006000E5010008E5010008E5010008E5010008D8
:10007000E5010008E5010008E5010008E5010008C8
:10008000E5010008E5010008E5010008E5010008B8
:10009000E5010008E5010008E5010008E5010008A8
:1000A000E5010008E5010008E5010008E501000898
:1000B000E5010008E5010008E5010008E501000888
:1000C000E5010008E5010008E5010008E501000878
:1000D000E5010008E5010008E5010008E501000868
:1000E000E5010008E5010008E5010008E501000858
:1000F000E5010008E5010008E5010008E501000848
:10010000E5010008E5010008E5010008E501000837
:10011000E5010008E5010008E5010008E501000827
:10012000E5010008E5010008E5010008E501000817
:10013000E5010008E5010008E5010008E501000807
:10014000E5010008E5010008E5010008E5010008F7
:10015000E5010008E5010008E5010008E5010008E7
:10016000E5010008E5010008E5010008E5010008D7
:10017000E5010008E5010008E5010008E5010008C7
:10018000E5010008E501000880B582B000AF104B22
:100190007B60104B3B6007E03B681A1D3A607A6851
:1001A000111D796012681A603B680B4A9342F3D3C1
:1001B0000A480B494FF000028842B8BF40F8042BB0
:1001C000FADB00F013F800BF0837BD4680BD00BF62
:1001D0004C85000800000020D00B0020D00B002030
:1001E000100C002080B400AFFEE700BF80B584B0E3
:1001F00000AF00F031FD00F0F5FD0121012000F01D
:100200007BF802233B6003233B710023FB713B46D9
:100210001946364800F014FC08233B6000233B716C
:100220000023BB7103237B710123FB713B461946FD
:100230002E4800F005FC00F051FA00F08FFA00F0B3
:100240006DFE0023FB6000F0EBFB0821274800F067
:1002500085FC0346002BF8D113E00121244801F06E
:10026000ADF90346002B0CD0FB68092B05DCF868C0
:1002700000F05EFAFB680133FB6001211C4801F0CD
:10028000C7F9FB68092BE8DD00F0BAFB0023FB602F
:100290000023BB600821154800F060FC0346002BDA
:1002A000F8D100F09DFBFB68092B12DC00F090FAFE
:1002B0000246104B1A6001210D4801F07FF90346F8
:1002C000002B06D0FB680133FB600121084801F0D8
:1002D0009FF9FB680A2BE6D1064B1B68184600F015
:1002E000E3FAFB680133FB60DDE700BF000002407A
:1002F00000040040D00B002080B483B000AF7860D1
:100300000B46FB70FB78002B06D00949084B1A6B93
:100310007B6813430B6306E00549054B1A6B7B684A
:10032000DB4313400B6300BF0C37BD4680BC7047F6
:100330000038024080B483B000AF78600B46FB7099
:10034000FB78002B06D00949084B1A6C7B681343D5
:100350000B6406E00549054B1A6C7B68DB431340D0
:100360000B6400BF0C37BD4680BC704700380240AC
:1003700080B483B000AF78600B46FB70FB78002B35
:1003800006D00949084B5A6C7B6813434B6406E05E
:100390000549054B5A6C7B68DB4313404B6400BF37
:1003A0000C37BD4680BC70470038024080B485B031
:1003B00000AF786039600023FB600023FB727B682C
:1003C0005B68FB60FB6823F0407323F48073FB6081
:1003D0003B681B791A023B681B681343FA68134396
:1003E000FB607B68FA685A607B689B68FB60FA6810
:1003F000174B1340FB603B681A693B68DB681A4384
:100400003B689B681A433B685B795B001343FA685F
:100410001343FB607B68FA689A607B68DB6AFB6069
:10042000FB6823F47003FB603B681B7D013BDAB281
:10043000FB7A1343FB72FB7A1B05FA681343FB60DC
:100440007B68FA68DA6200BF1437BD4680BC70472B
:10045000FDF7FFC080B485B000AF78600023FB607B
:100460000E4B5B68FB60FA680D4B1340FB607B68CA
:100470001A687B685B681A437B689B681A437B68D1
:10048000DB681343FA681343FB60044AFB6853605C
:1004900000BF1437BD4680BC704700BF0023014039
:1004A000E030FCFF80B483B000AF78600B46FB7097
:1004B000FB78002B06D07B689B6843F001027B68C9
:1004C0009A6005E07B689B6823F001027B689A6074
:1004D00000BF0C37BD4680BC704700BF80B485B0FC
:1004E00000AF7860084611461A460346FB700B467B
:1004F000BB7013467B700023FB600023BB60FB785E
:10050000092B23D97B68DB68FB60FB78A3F10A0227
:1005100013465B001344072202FA03F3BB60BB6877
:10052000DB43FA681340FB607978FB78A3F10A0299
:1005300013465B00134401FA03F3BB60FA68BB681F
:100540001343FB607B68FA68DA601EE07B681B6916
:10055000FB60FA7813465B001344072202FA03F3A8
:10056000BB60BB68DB43FA681340FB607978FA78BC
:1005700013465B00134401FA03F3BB60FA68BB68DF
:100580001343FB607B68FA681A61BB78062B21D89D
:100590007B685B6BFB60BB785A1E13469B00134461
:1005A0001F2202FA03F3BB60BB68DB43FA68134007
:1005B000FB60F978BB785A1E13469B00134401FA7E
:1005C00003F3BB60FA68BB681343FB607B68FA689F
:1005D0005A6347E0BB780C2B21D87B681B6BFB6010
:1005E000BB78DA1F13469B0013441F2202FA03F361
:1005F000BB60BB68DB43FA681340FB60F978BB78EB
:10060000DA1F13469B00134401FA03F3BB60FA6838
:10061000BB681343FB607B68FA681A6322E07B685F
:10062000DB6AFB60BB78A3F10D0213469B00134409
:100630001F2202FA03F3BB60BB68DB43FA68134076
:10064000FB60F978BB78A3F10D0213469B001344BD
:1006500001FA03F3BB60FA68BB681343FB607B6875
:10066000FA68DA6200BF1437BD4680BC704700BF2D
:1006700080B483B000AF78607B689B6843F08042B1
:100680007B689A6000BF0C37BD4680BC704700BFD6
:1006900080B483B000AF78607B68DB6C9BB2184697
:1006A0000C37BD4680BC704780B485B000AF786021
:1006B0000B46FB700023FB737B681A68FB781340C2
:1006C000002B02D00123FB7301E00023FB73FB7BB3
:1006D00018461437BD4680BC704700BF80B584B053
:1006E00000AF01210220FFF725FE41F28733BB60F6
:1006F00042F2CF03BB800023BB810023FB803B1D64
:1007000019460A4800F0ACFE0121084800F080FFBD
:1007100001220121054800F02DFF0121034800F0CE
:1007200009FF00BF1037BD4680BD00BF0004004078
:1007300080B582B000AF78607A6813469B019B1A3F
:10074000DB00054A13444FF4FC71184600F0AEFB81
:1007500000BF0837BD4680BDF86E000880B58AB07E
:1007600000AF01214FF48070FFF702FE0023BB6150
:100770000023FB6100233B6200237B6207F1180327
:100780001846FFF767FE00233B6000233B710123FF
:100790007B710023FB600023BB6000233B610123CE
:1007A0003B753B4619460848FFF700FE042301222B
:1007B00001210548FFF792FE01210348FFF772FE71
:1007C00000BF2837BD4680BD00200140000000006A
:1007D00090B597B002AF3048FFF74AFF00BF022143
:1007E0002D48FFF761FF0346002BF8D02A48FFF79A
:1007F0004FFF0346184601F00FFC0346FB6404213B
:10080000042000F0A9FB2549F86C01F011FD034616
:10081000184601F095F81EA3D3E9002301F0E4F88F
:1008200003460C46381DCDE900341D4A402101F035
:10083000C1FDB8643B1D184600F058FB1749F86C21
:1008400001F0F6FC03461749184601F03DFC03464B
:10085000184600F0EDFE03461249184601F0E8FC88
:100860000346184601F06CF809A3D3E9002301F010
:10087000BBF803460C461846214601F0C7FA03466A
:100880007B647B6C18465437BD4690BDAFF3008047
:10089000CDCCCCCCCCCC00400020014000007A4430
:1008A000A88200080000C84290B5ABB002AF7860E3
:1008B0000021002000F050FB4FF4FC71424800F092
:1008C000F5FA4249786801F0FFFB0346184601F04B
:1008D00037F83BA3D3E9002301F0B0F903460C46F7
:1008E000184621464FF00002394B01F0A7F90346A4
:1008F0000C461846214601F089FA0346C7F89C3099
:100900000421042000F028FBD7F89C0001F018F81F
:1009100003460C4607F14C00CDE900342D4A402136
:1009200001F048FDC7F89800786801F009F803461F
:100930000C4607F10C00CDE90034264A402101F0B5
:1009400039FDC7F894000021052000F005FB07F1F0
:100950000C03184600F0CAFA0421042000F0FCFA47
:10096000D7F89C0001F000FD0346C7F89030D7F897
:10097000900001F055FB03461946D7F89C0001F0A2
:1009800099FA03461149184601F09EFB03461846A2
:1009900001F0EAFC0346C7F88C30D7F8900000F06D
:1009A000FDFA0D4800F0A2FAD7F88C0000F0F6FA34
:1009B0000A4800F09BFA00BFA437BD4690BD00BFB7
:1009C000A4703D0AD7A3C03F006D0008000070422C
:1009D00000004E40A8820008B0820008B4820008DF
:1009E00080B500AF0021002000F0B6FA4FF4FC7192
:1009F000024800F05BFA00BF80BD00BF1867000826
:100A000080B500AF0021002000F0A6FA4FF4FC7181
:100A1000024800F04BFA00BF80BD00BF086B000821
:100A200080B500AF0021002000F096FA4FF4FC7171
:100A3000024800F03BFA00BF80BD00BF106900080B
:100A400080B487B000AF7860396000237B610023F9
:100A50003B610023FB6000237B6176E001227B6920
:100A600002FA03F33B613B681A683B691340FB6081
:100A7000FA683B699A4265D17B681A687B695B00BA
:100A8000032101FA03F3DB431A407B681A607B6899
:100A90001A683B681B7919467B695B0001FA03F30E
:100AA0001A437B681A603B681B79012B03D03B68B3
:100AB0001B79022B2ED17B689A687B695B0003212E
:100AC00001FA03F3DB431A407B689A607B689A68FB
:100AD0003B685B7919467B695B0001FA03F31A43B3
:100AE0007B689A607B685A687B699BB219460123D0
:100AF0008B40DB431A407B685A607B685B683A68CE
:100B0000927911467A6992B201FA02F292B21A43CC
:100B10007B685A607B68DA687B699BB25B00032163
:100B200001FA03F3DB431A407B68DA607B68DA681A
:100B30003B68DB7919467B695B0001FA03F31A43D2
:100B40007B68DA607B6901337B617B690F2B85D918
:100B500000BF1C37BD4680BC704700BF80B485B065
:100B600000AF78600B467B800023FB737B681A69BB
:100B70007B881340002B02D00123FB7301E000238C
:100B8000FB73FB7B18461437BD4680BC704700BF23
:100B900080B483B000AF78600B467B807B687A8836
:100BA0001A8300BF0C37BD4680BC704780B483B049
:100BB00000AF78600B467B807B687A885A8300BFE1
:100BC0000C37BD4680BC704780B485B000AF7860FC
:100BD0000B467B8013467B700023FB600023BB60C9
:100BE0007A787B8803F007039B0002FA03F3FB602B
:100BF0007B88DB089BB218467B88DB089BB21A46D1
:100C00007B68083253F822207B8803F007039B009F
:100C10000F2101FA03F3DB4302EA03017B6800F1D1
:100C2000080243F822107B88DB089BB21A467B68D7
:100C3000083253F82220FB681343BB607B88DB0833
:100C40009BB21A467B680832B96843F8221000BF8D
:100C50001437BD4680BC704780B500AF124A124BB6
:100C60001B6843F0010313600F4B00229A600E4A89
:100C70000D4B1B6823F0847323F4803313600A4BFD
:100C80000A4A5A60084A084B1B6823F48023136001
:100C9000054B0022DA6000F00DF8054B4FF00062C2
:100CA0009A6000BF80BD00BF0038024010300024B1
:100CB00000ED00E080B483B000AF00237B60002330
:100CC0003B60354A344B1B6843F480331360324B2E
:100CD0001B6803F400333B607B6801337B603B6837
:100CE000002B03D17B68B3F5A06FF0D12A4B1B68B2
:100CF00003F40033002B02D001233B6001E000230A
:100D00003B603B68012B42D1234A234B1B6C43F0D1
:100D100080531364214A214B1B6843F480431360C2
:100D20001D4A1D4B9B6893601B4A1B4B9B6843F4F9
:100D300000439360184A184B9B6843F4A053936098
:100D4000154B174A5A60144A134B1B6843F08073C3
:100D5000136000BF104B1B6803F00073002BF9D029
:100D6000104B40F205621A600B4A0B4B9B6823F054
:100D700003039360084A084B9B6843F002039360A7
:100D800000BF054B9B6803F00C03082BF9D100BF93
:100D90000C37BD4680BC70470038024000700040F0
:100DA00008544007003C024080B485B000AF786032
:100DB0000A4B1B68002B02D1084B094A1A60074BEB
:100DC0001B68FB60054B1A687B681344034A136079
:100DD000FB6818461437BD4680BC7047D40B002012
:100DE000100C002080B500AF00F080F900F09AF9F7
:100DF000002000F041F9002000F026FA012000F068
:100E00003DFA012000F054FA012000F06BFA0120B5
:100E100000F000FA0A2000F07FFA012000F014FA36
:100E20000021212000F042F90021C02000F03EF90D
:100E30000021142000F03AF90021062000F036F9D4
:100E40000021202000F032F900F068F800210C2089
:100E500000F02CF900BF80BD80B584B000AF034620
:100E6000FB710023BB73FB79203BFB710023FB73F9
:100E700012E0FA79F97B0C4813465B0013445B00DF
:100E800003440B441B78BB73BB7B0121184600F065
:100E90000DF9FB7B0133FB73FB7B052BE9D900BF0D
:100EA0001037BD4680BD00BF0000002080B584B073
:100EB00000AF786039600023FB720023FB600CE018
:100EC000FB687A6813441B78FB72FB7A0121184691
:100ED00000F0ECF8FB680133FB60FA683B689A426B
:100EE000EEDB00BF1037BD4680BD00BF80B584B0CB
:100EF00000AF786009E07B681B78FB73FB7B1846CA
:100F0000FFF7AAFF7B6801337B607B681B78002BAF
:100F1000F1D100BF1037BD4680BD00BF80B582B0A3
:100F200000AF0023FB710FE00023BB7106E001213D
:100F3000002000F0BBF8BB790133BB71BB79532BA8
:100F4000F5D9FB790133FB71FB79052BECD900BF97
:100F50000837BD4680BD00BF80B584B000AF0346F2
:100F60000A46FB711346BB71FB791A4652001344C3
:100F70005B00FB73BB7943F04003DBB200211846F2
:100F800000F094F8FB7B63F07F03DBB2002118468E
:100F900000F08CF800BF1037BD4680BD80B584B02E
:100FA00000AF78607B68304AA2FB03239B09DBB269
:100FB0003B733B7B1A462D4B03FB02F31A467B68BF
:100FC00013447B607B682A4AA2FB03235B09DBB2E4
:100FD0007B737B7B1A466FF0630303FB02F31A46B5
:100FE0007B6813447B607B68224AA2FB0323DB08F7
:100FF000DBB2BB73BB7B1A466FF0090303FB02F342
:101000001A467B6813447B607B68DBB2FB733B7BD7
:101010003033DBB23B737B7B3033DBB27B73BB7B28
:101020003033DBB2BB73FB7B3033DBB2FB733B7B18
:10103000302B03D03B7B1846FFF70EFF7B7B302B1A
:1010400003D07B7B1846FFF707FFBB7B302B03D019
:10105000BB7B1846FFF700FFFB7B1846FFF7FCFE43
:1010600000BF1037BD4680BDD34D621018FCFFFF96
:101070001F85EB51CDCCCCCC80B582B000AF034600
:10108000FB71FB79002B05D14FF400710648FFF787
:101090007FFD04E04FF400710348FFF787FD00BFB8
:1010A0000837BD4680BD00BF0004024080B582B055
:1010B00000AF03460A46FB711346BB71002000F0E7
:1010C000A9F8BB79002B03D1002000F0D7F802E08B
:1010D000012000F0D3F8FB79184600F071F80120E8
:1010E00000F098F800BF0837BD4680BD80B582B0DB
:1010F00000AF4FF4F0533B6003237B7101233B713E
:101100000023BB7101210220FFF7F6F83B46194688
:101110000348FFF795FC00BF0837BD4680BD00BF00
:101120000004024080B588B000AF01214FF4804038
:10113000FFF700F901210220FFF7DEF805220D215B
:101140001D48FFF741FD05220F211B48FFF73CFD1D
:101150004FF420437B6002233B720023BB720123C8
:10116000FB7202237B723B1D19461348FFF768FC94
:101170004FF44043BB814FF48273FB8100233B82D9
:1011800002237B820123BB824FF40073FB82102376
:101190003B8300237B830723BB8307F10C031946A2
:1011A000064800F0CFF80121044800F00FF900BF15
:1011B0002037BD4680BD00BF00040240003800401B
:1011C00080B582B000AF0346FB7100BF022110481A
:1011D00000F02AF90346002BF8D0FB799BB21946A0
:1011E0000B4800F013F900BF0221094800F01CF978
:1011F0000346002BF8D000BF8021054800F014F909
:101200000346012BF8D000BF0837BD4680BD00BFA4
:101210000038004080B582B000AF0346FB71FB7917
:10122000002B05D14FF400610648FFF7BFFC04E036
:101230004FF400610348FFF7ABFC00BF0837BD4621
:1012400080BD00BF0004024080B582B000AF0346FD
:10125000FB71FB79002B05D14FF480610648FFF745
:10126000A5FC04E04FF480610348FFF791FC00BF48
:101270000837BD4680BD00BF0004024080B582B083
:1012800000AF0346FB71FB79002B05D14FF4805171
:101290000648FFF78BFC04E04FF480510348FFF74A
:1012A00077FC00BF0837BD4680BD00BF0004024088
:1012B00080B582B000AF0346FB71FB79002B05D1EE
:1012C0004FF400410648FFF771FC04E04FF4004181
:1012D0000348FFF75DFC00BF0837BD4680BD00BF77
:1012E0000004024080B582B000AF0346FB71FB7979
:1012F000002B05D14FF400510648FFF757FC04E0DE
:101300004FF400510348FFF743FC00BF0837BD46C8
:1013100080BD00BF0004024080B485B000AF78609B
:101320007B6842F2107202FB03F3FB6000BFFB68B4
:101330005A1EFA60002BFAD100BF1437BD4680BC9C
:10134000704700BF80B485B000AF7860396000237B
:10135000FB817B681B88FB81FB8903F44153FB8184
:101360003B681A883B685B8813439AB23B689B884A
:1013700013439AB23B68DB8813439AB23B681B89DC
:1013800013439AB23B685B8913439AB23B689B89CB
:1013900013439AB23B68DB8913439AB2FB89134328
:1013A000FB817B68FA891A807B689B8B9BB223F454
:1013B00000639AB27B689A833B681A8A7B681A82B8
:1013C00000BF1437BD4680BC704700BF80B483B0F7
:1013D00000AF78600B46FB70FB78002B08D07B6871
:1013E0001B889BB243F040039AB27B681A8007E0E7
:1013F0007B681B889BB223F040039AB27B681A80FB
:1014000000BF0C37BD4680BC704700BF80B483B0BE
:1014100000AF78600B467B807B687A889A8100BF3A
:101420000C37BD4680BC704780B485B000AF786093
:101430000B467B800023FB737B681B899AB27B88F9
:1014400013409BB2002B02D00123FB7301E0002369
:10145000FB73FB7B18461437BD4680BC704700BF4A
:1014600080B485B000AF786039600023FB817B6871
:101470001B88FB817B68284A934213D07B68274AEC
:1014800093420FD07B68B3F1804F0BD07B68244A26
:10149000934207D07B68234A934203D07B68224A59
:1014A000934208D1FB8923F07003FB813B685A8883
:1014B000FB891343FB817B681C4A93420CD07B68F9
:1014C0001B4A934208D0FB8923F44073FB813B689D
:1014D0001A89FB891343FB817B68FA891A803B6870
:1014E0005A687B68DA623B681A887B681A857B6871
:1014F000094A934203D07B68084A934204D13B686F
:101500009B7A9AB27B681A867B6801229A8200BF16
:101510001437BD4680BC7047000001400004014004
:101520000004004000080040000C00400010004093
:101530000014004080B483B000AF78600B46FB70AD
:10154000FB78002B08D07B681B889BB243F001031B
:101550009AB27B681A8007E07B681B889BB223F0F5
:1015600001039AB27B681A8000BF0C37BD4680BC6D
:10157000704700BF80B483B000AF78600B467B80BB
:1015800013467B707B78002B08D07B689B899AB2CE
:101590007B8813439AB27B689A8109E07B689B89B8
:1015A0009AB27B88DB439BB213409AB27B689A81E4
:1015B00000BF0C37BD4680BC704700BF80B485B00B
:1015C00000AF78600B467B800023FB730023BB8158
:1015D00000237B817B681B8A9AB27B881340BB8186
:1015E0007B689B899AB27B8813407B81BB89002BE7
:1015F00005D07B89002B02D00123FB7301E000237F
:10160000FB73FB7B18461437BD4680BC704700BF98
:1016100080B483B000AF78600B467B807B88DB436F
:101620009AB27B681A8200BF0C37BD4680BC7047F7
:1016300008B5C0F3C7537F3B162B01460EDC002BC9
:10164000024610DB0B481841014205D04FF48001DF
:101650001941114421EA0001084608BD802BFBD145
:1016600000F02AFC08BD013300F00041F4D141F044
:101670007E51F1E7FFFF7F0081F0004102E000BFF3
:1016800083F0004330B54FEA41044FEA430594EA42
:10169000050F08BF90EA020F1FBF54EA000C55EA7D
:1016A000020C7FEA645C7FEA655C00F0E2804FEA4E
:1016B0005454D4EB5555B8BF6D420CDD2C4480EA30
:1016C000020281EA030382EA000083EA010180EA60
:1016D000020281EA0303362D88BF30BD11F0004FAE
:1016E0004FEA01314FF4801C4CEA113102D04042E4
:1016F00061EB410113F0004F4FEA03334CEA13331F
:1017000002D0524263EB430394EA050F00F0A78036
:10171000A4F10104D5F1200E0DDB02FA0EFC22FA31
:1017200005F2801841F1000103FA0EF2801843FA25
:1017300005F359410EE0A5F120050EF1200E012A16
:1017400003FA0EFC28BF4CF0020C43FA05F3C01854
:1017500051EBE37101F0004507D54FF0000EDCF1CD
:10176000000C7EEB00006EEB0101B1F5801F1BD376
:10177000B1F5001F0CD349085FEA30004FEA3C0C7A
:1017800004F101044FEA445212F5800F80F09A8070
:10179000BCF1004F08BF5FEA500C50F1000041EB74
:1017A000045141EA050130BD5FEA4C0C404141EB78
:1017B000010111F4801FA4F10104E9D191F0000F9F
:1017C00004BF01460020B1FA81F308BF2033A3F122
:1017D0000B03B3F120020CDA0C3208DD02F1140C19
:1017E000C2F10C0201FA0CF021FA02F10CE002F154
:1017F0001402D8BFC2F1200C01FA02F120FA0CFC4D
:10180000DCBF41EA0C019040E41AA2BF01EB045195
:10181000294330BD6FEA04041F3C1CDA0C340EDC93
:1018200004F11404C4F1200220FA04F001FA02F3D6
:1018300040EA030021FA04F345EA030130BDC4F194
:101840000C04C4F1200220FA02F001FA04F340EA89
:101850000300294630BD21FA04F0294630BD94F03A
:10186000000F83F4801306BF81F480110134013D21
:101870004EE77FEA645C18BF7FEA655C29D094EA92
:10188000050F08BF90EA020F05D054EA000C04BF10
:101890001946104630BD91EA030F1EBF00210020FB
:1018A00030BD5FEA545C05D14000494128BF41F09A
:1018B000004130BD14F580043CBF01F5801130BDFE
:1018C00001F0004545F0FE4141F470014FF0000089
:1018D00030BD7FEA645C1ABF194610467FEA655C3A
:1018E0001CBF0B46024650EA013406BF52EA0335DC
:1018F00091EA030F41F4002130BD00BF90F0000FCA
:1019000004BF0021704730B54FF4806404F1320405
:101910004FF000054FF0000150E700BF90F0000FBE
:1019200004BF0021704730B54FF4806404F13204E5
:1019300010F0004548BF40424FF000013EE700BFB5
:1019400042004FEAE2014FEA31014FEA02701FBF45
:1019500012F07F4393F07F4F81F06051704792F017
:10196000000F14BF93F07F4F704730B54FF4607491
:1019700001F0004521F0004120E700BF50EA0102DC
:1019800008BF704730B54FF000050AE050EA010289
:1019900008BF704730B511F0004502D5404261EBF9
:1019A00041014FF4806404F132045FEA915C3FF43A
:1019B000DCAE4FF003025FEADC0C18BF03325FEAD3
:1019C000DC0C18BF033202EBDC02C2F1200300FA88
:1019D00003FC20FA02F001FA03FE40EA0E0021FAAD
:1019E00002F11444C1E600BF70B54FF0FF0C4CF497
:1019F000E06C1CEA11541DBF1CEA135594EA0C0F4D
:101A000095EA0C0F00F0DEF82C4481EA030621EA87
:101A10004C5123EA4C5350EA013518BF52EA0335C2
:101A200041F4801143F4801338D0A0FB02CE4FF074
:101A30000005E1FB02E506F00042E0FB03E54FF0A4
:101A40000006E1FB03569CF0000F18BF4EF0010E9C
:101A5000A4F1FF04B6F5007F64F5407404D25FEA98
:101A60004E0E6D4146EB060642EAC62141EA55514B
:101A70004FEAC52040EA5E504FEACE2EB4F1FD0C8D
:101A800088BFBCF5E06F1ED8BEF1004F08BF5FEA0B
:101A9000500E50F1000041EB045170BD06F00046BD
:101AA00046EA010140EA020081EA0301B4EB5C046A
:101AB000C2BFD4EB0C0541EA045170BD41F4801162
:101AC0004FF0000E013C00F3AB8014F1360FDEBF87
:101AD000002001F0004170BDC4F10004203C35DA63
:101AE0000C341BDC04F11404C4F1200500FA05F3E6
:101AF00020FA04F001FA05F240EA020001F0004287
:101B000021F0004110EBD37021FA04F642EB0601FC
:101B10005EEA430E08BF20EAD37070BDC4F10C0426
:101B2000C4F1200500FA04F320FA05F001FA04F2EA
:101B300040EA020001F0004110EBD37041F10001D6
:101B40005EEA430E08BF20EAD37070BDC4F12005E1
:101B500000FA05F24EEA020E20FA04F301FA05F249
:101B600043EA020321FA04F001F0004121FA04F2F1
:101B700020EA020000EBD3705EEA430E08BF20EAC1
:101B8000D37070BD94F0000F0FD101F000464000FB
:101B900041EB010111F4801F08BF013CF7D041EA7D
:101BA000060195F0000F18BF704703F00046520081
:101BB00043EB030313F4801F08BF013DF7D043EA52
:101BC0000603704794EA0C0F0CEA135518BF95EA08
:101BD0000C0F0CD050EA410618BF52EA4306D1D18F
:101BE00081EA030101F000414FF0000070BD50EAAE
:101BF000410606BF1046194652EA430619D094EA38
:101C00000C0F02D150EA013613D195EA0C0F05D121
:101C100052EA03361CBF104619460AD181EA030175
:101C200001F0004141F0FE4141F470014FF000002D
:101C300070BD41F0FE4141F4780170BD70B54FF0C8
:101C4000FF0C4CF4E06C1CEA11541DBF1CEA135548
:101C500094EA0C0F95EA0C0F00F0A7F8A4EB05042A
:101C600081EA030E52EA03354FEA013100F0888021
:101C70004FEA03334FF0805545EA131343EA1263EA
:101C80004FEA022245EA111545EA10654FEA00269F
:101C90000EF000419D4208BF964244F1FD0404F558
:101CA000407402D25B084FEA3202B61A65EB0305B4
:101CB0005B084FEA32024FF480104FF4002CB6EB71
:101CC000020E75EB030E22BFB61A754640EA0C00F1
:101CD0005B084FEA3202B6EB020E75EB030E22BF31
:101CE000B61A754640EA5C005B084FEA3202B6EB72
:101CF000020E75EB030E22BFB61A754640EA9C0031
:101D00005B084FEA3202B6EB020E75EB030E22BF00
:101D1000B61A754640EADC0055EA060E18D04FEABE
:101D2000051545EA16754FEA06164FEAC30343EA5E
:101D300052734FEAC2025FEA1C1CC0D111F4801F2B
:101D40000BD141EA00014FF000004FF0004CB6E724
:101D500011F4801F04BF01430020B4F1FD0C88BFC3
:101D6000BCF5E06F3FF6AFAEB5EB030C04BFB6EBCE
:101D7000020C5FEA500C50F1000041EB045170BDC1
:101D80000EF0004E4EEA113114EB5C04C2BFD4EBEE
:101D90000C0541EA045170BD41F480114FF0000E72
:101DA000013C90E645EA060E8DE60CEA135594EAEE
:101DB0000C0F08BF95EA0C0F3FF43BAF94EA0C0FF1
:101DC0000AD150EA01347FF434AF95EA0C0F7FF466
:101DD00025AF104619462CE795EA0C0F06D152EABA
:101DE00003353FF4FDAE1046194622E750EA41069E
:101DF00018BF52EA43067FF4C5AE50EA41047FF4AF
:101E00000DAF52EA43057FF4EBAE12E74FEA410211
:101E1000B2F1E04324BFB3F5001CDCF1FE5C0DD948
:101E200001F0004C4FEAC0024CEA5070B2F1004F92
:101E300040EB830008BF20F00100704711F0804F95
:101E400021D113F13872BCBF01F00040704741F45A
:101E500080114FEA5252C2F11802C2F1200C10FA5E
:101E60000CF320FA02F018BF40F001004FEAC12342
:101E70004FEAD32303FA0CFC40EA0C0023FA02F3E6
:101E80004FEA4303CCE77FEA625307D150EA0133BC
:101E90001EBF4FF0FE4040F44000704701F000408C
:101EA00040F0FE4040F40000704700BF80F000406A
:101EB00002E000BF81F0004142001FBF5FEA410322
:101EC00092EA030F7FEA226C7FEA236C6AD04FEA22
:101ED0001262D2EB1363C1BFD21841404840414067
:101EE000B8BF5B42192B88BF704710F0004F40F419
:101EF000000020F07F4018BF404211F0004F41F435
:101F0000000121F07F4118BF494292EA030F3FD000
:101F1000A2F1010241FA03FC10EB0C00C3F1200313
:101F200001FA03F100F0004302D5494260EB4000A2
:101F3000B0F5000F13D3B0F1807F06D340084FEA0D
:101F4000310102F10102FE2A51D2B1F1004F40EB02
:101F5000C25008BF20F0010040EA0300704749006A
:101F600040EB000010F4000FA2F10102EDD1B0FA35
:101F700080FCACF1080CB2EB0C0200FA0CF0AABF2A
:101F800000EBC25052421843BCBFD04018437047C8
:101F900092F0000F81F4000106BF80F400000132CE
:101FA000013BB5E74FEA41037FEA226C18BF7FEAA5
:101FB000236C21D092EA030F04D092F0000F08BFE7
:101FC0000846704790EA010F1CBF0020704712F0CE
:101FD0007F4F04D1400028BF40F00040704712F10D
:101FE00000723CBF00F50000704700F0004343F072
:101FF000FE4040F4000070477FEA226216BF0846A8
:102000007FEA23630146420206BF5FEA412390EA6A
:10201000010F40F4800070474FF0000304E000BF60
:1020200010F0004348BF40425FEA000C08BF704711
:1020300043F0964301464FF000001CE050EA0102D5
:1020400008BF70474FF000030AE000BF50EA0102EA
:1020500008BF704711F0004302D5404261EB4101D7
:102060005FEA010C02BF84460146002043F0B643FC
:1020700008BFA3F18053A3F50003BCFA8CF2083A21
:10208000A3EBC25310DB01FA02FC634400FA02FC2A
:10209000C2F12002BCF1004F20FA02F243EB020031
:1020A00008BF20F00100704702F1200201FA02FC93
:1020B000C2F1200250EA4C0021FA02F243EB020086
:1020C00008BF20EADC7070474FF0FF0C1CEAD052CA
:1020D0001EBF1CEAD15392EA0C0F93EA0C0F6FD08B
:1020E0001A4480EA010C400218BF5FEA41211ED069
:1020F0004FF0006343EA501043EA5111A0FB013155
:102100000CF00040B1F5000F3EBF490041EAD37129
:102110005B0040EA010062F17F02FD2A1DD8B3F1A5
:10212000004F40EBC25008BF20F00100704790F014
:10213000000F0CF0004C08BF49024CEA502040EA66
:1021400051207F3AC2BFD2F1FF0340EAC25070472C
:1021500040F400004FF00003013A5DDC12F1190F6A
:10216000DCBF00F000407047C2F10002410021FADC
:1021700002F1C2F1200200FA02FC5FEA310040F1F4
:10218000000053EA4C0308BF20EADC70704792F06D
:10219000000F00F0004C02BF400010F4000F013AA5
:1021A000F9D040EA0C0093F0000F01F0004C02BFA0
:1021B000490011F4000F013BF9D041EA0C018FE70F
:1021C0000CEAD15392EA0C0F18BF93EA0C0F0AD015
:1021D00030F0004C18BF31F0004CD8D180EA01003B
:1021E00000F00040704790F0000F17BF90F0004FD4
:1021F000084691F0000F91F0004F14D092EA0C0FB6
:1022000001D142020FD193EA0C0F03D14B0218BF48
:10221000084608D180EA010000F0004040F0FE408E
:1022200040F40000704740F0FE4040F4400070472A
:102230004FF0FF0C1CEAD0521EBF1CEAD15392EAA9
:102240000C0F93EA0C0F69D0A2EB030280EA010C99
:1022500049024FEA402037D04FF0805343EA111132
:1022600043EA10130CF000408B4238BF5B0042F190
:102270007D024FF4000C8B4224BF5B1A40EA0C0035
:10228000B3EB510F24BFA3EB510340EA5C00B3EB67
:10229000910F24BFA3EB910340EA9C00B3EBD10F55
:1022A00024BFA3EBD10340EADC001B0118BF5FEAA7
:1022B0001C1CE0D1FD2A3FF650AF8B4240EBC250D0
:1022C00008BF20F0010070470CF0004C4CEA502091
:1022D0007F32C2BFD2F1FF0340EAC250704740F4E0
:1022E00000004FF00003013A37E792F0000F00F0D2
:1022F000004C02BF400010F4000F013AF9D040EA50
:102300000C0093F0000F01F0004C02BF490011F4E3
:10231000000F013BF9D041EA0C0195E70CEAD153DB
:1023200092EA0C0F08D142027FF47DAF93EA0C0FC2
:102330007FF470AF084676E793EA0C0F04D14B02A6
:102340003FF44CAF08466EE730F0004C18BF31F058
:10235000004CCAD130F000427FF45CAF31F0004352
:102360007FF43CAF5FE700BF4FEA4002B2F1FE4F9F
:102370000FD34FF09E03B3EB12620DD94FEA002347
:1023800043F0004310F0004F23FA02F018BF404220
:1023900070474FF00000704712F1610F01D1420207
:1023A00005D110F0004008BF6FF0004070474FF0BB
:1023B000000070470CB4F0B5244B00299DB01D6897
:1023C0003EDB4FF402730C4602900690ADF81430D9
:1023D00023AE17D04C1E229A049433464FF6FF7753
:1023E00002A9284607940196ADF8167000F030F85F
:1023F000421C1BDB029B00221A701DB0BDE8F0409E
:1024000002B0704733464FF6FF77229A049402A930
:10241000284607940196ADF8167000F019F8431C91
:1024200007DB1DB0BDE8F04002B070478B232B6086
:10243000E0E78B232B601DB0BDE8F04002B0704791
:102440008B232B604FF0FF30EBE700BF50060020DE
:102450002DE9F04FC1B00C46099115460E930A9034
:1024600002F00EFB03681793184603F0E9F9A389FD
:1024700016901E0603D52369002B01F01A81002354
:102480001A4612932593249319930B93DFF864A4AF
:10249000149230AB239399461592A84698F80030D1
:1024A0004446EBB1252B02D11AE0252B03D014F8BA
:1024B000013F002BF9D1C8EB04058DB1249B259A6F
:1024C000C9F8008001332A44072BC9F8045025922B
:1024D000249300F3A68009F108090B9B2B440B936E
:1024E0002378002B00F0A68000231A468DF86F3069
:1024F00019460C9307934FF0FF3B637804F10108F2
:102500005D4608F10108A3F12000582800F2258457
:10251000DFE810F08803230423049003230423043A
:1025200023042304230423049703A50323045D0049
:10253000E2002304FE000501050105010501050176
:1025400005010501050105012304230423042304D7
:1025500023042304230423042304230415018102F8
:10256000230481022304230423042304C602230436
:102570002304CD0223042304230423042304F702A9
:102580002304230425032304230423042304230412
:102590002304230423042304230466037903810210
:1025A000810281028103790323042304D1032304DC
:1025B000DB03A3006400EE032304F5032304AA0352
:1025C00023042304BC030C980E9340420C90079BF9
:1025D00043F00403079398F8003092E70E98AB4657
:1025E000002104688DF86F10071D079830237822AA
:1025F0008B458DF870304FF000058DF8712040F05C
:102600000203C0F2C78320F0800343F00203079364
:1026100054EA05030E9700F093830F461192B348D6
:10262000CEE223AA09990A9803F078F948B90DF186
:10263000C00952E7259B23B10A98099923AA03F000
:102640006DF9099B9B8913F0400F0B9B18BF4FF04E
:10265000FF33184641B0BDE8F08F1193AB46002A16
:1026600041F03382079A12F0200300F02E820E9F71
:10267000073727F00703002703F10801BB450E9138
:10268000D3E900458DF86F70C0F2798722F080039E
:10269000079354EA050300F0758330AEE20842EA7E
:1026A0004572E90804F007030D461446303354EA36
:1026B000050206F8013DF1D1079AD10740F1848067
:1026C000302B00F081803022731E06F8012C30AAD6
:1026D000D21A0D921E467AE098F800302A2B08F1A3
:1026E000010401F0B981A3F13000092898BF002549
:1026F00001F26C8114F8013B05EB850500EB450503
:10270000A3F130000928F5D945EAE575A046FAE6B7
:10271000079B43F08003079398F80030F1E6A3F19C
:10272000300000231C4618F8013B04EB840400EB46
:102730004404A3F130000928F5D90C94E3E6119381
:10274000AB46002A41F0AB81079B43F0100307938F
:10275000079B980640F130850E9F073727F0070743
:10276000D7E9002307F108010E9114461D46002AFF
:1027700073F10003C0F25B85BBF1000F9DF86F7031
:10278000C0F23885079B23F08003079354EA0503C2
:1027900000F0DB81002D08BF0A2CC0F0DB8130AED9
:1027A000204629460A22002303F02AFE303206F88A
:1027B000012D2046294600230A2203F021FE04466B
:1027C0000D4654EA0503EBD130AB9B1B0D930D9BDB
:1027D0005B45B8BF5B4608930023139317B1089B72
:1027E00001330893079B13F002030F9302D0089B59
:1027F00002330893079B13F08403109340F0D782B1
:102800000C9B089A9D1A002D40F3D182102D25991A
:10281000249A374F27DD189648461024B946099E5A
:102820002F460A9D04E0103F102F00F1080016DD2E
:1028300001322F4B24921031072A259180E818008D
:10284000F1DD23AA3146284603F068F800287FF41A
:10285000F8AE103F102F2599249A30A8E8DC189E76
:102860003D464F46814601326C18072A2594249232
:10287000C9F80070C9F8045000F328849DF86F70FF
:1028800009F1080977B1249B013301340DF16F017F
:102890000122072B2594249389E8060000F3A083E6
:1028A00009F108090F9B6BB1249B013302341CA969
:1028B0000222072B2594249389E8060000F39C83C9
:1028C00009F10809109B802B00F0D5820D9BC3EB0A
:1028D0000B07002F39DD074A249B0F92102F28DDAC
:1028E00022464FF0100B0A9D099C0AE0EC8200087A
:1028F0000C830008B8820008103F102F09F1080966
:1029000016DD01331032072B2592249389E8000C41
:10291000F2DD23AA2146284603F000F800287FF4C0
:1029200090AE103F102F259A249B0DF1C009E8DCD2
:10293000144601330F9A24933C44072B259489E8CD
:10294000840000F3418309F10809079BDA0500F1CF
:102950003082249B0D99C9F8006001330C44072B89
:102960002594C9F80410249300F3188309F1080989
:10297000079B59073FD50C9B089A9D1A002D3ADDFD
:10298000102D249BBC4F23DD22461026DDF828B0F5
:10299000099C04E0103D102D09F1080917DD0133F1
:1029A000B54924931032072B259289E84200F1DDC6
:1029B00023AA2146584602F0B1FF00287FF441AE19
:1029C000103D102D259A249B0DF1C009E7DC14461B
:1029D00001332C44072B25942493C9F80070C9F8BF
:1029E000045008DD23AA09990A9802F097FF0028ED
:1029F0007FF427AE259C0B9B0C9A08998A42ACBFAA
:102A00009B185B180B93002C40F0D4820023249376
:102A10000DF1C00942E51193AB46002A41F0518007
:102A20000E9F073727F0070303F108020E921A687A
:102A300014925B681593159B149D23F0004428465F
:102A400021464FF0FF328D4B03F09CFC002840F0F4
:102A5000C284284621464FF0FF32884B03F074FCB5
:102A6000002840F0B884149815990022002303F040
:102A700061FC002840F04F879DF86F70804E814BBD
:102A8000079921F080010791119903224FF0000B63
:102A900008924729D8BF1E460D92CDF84CB09DE64E
:102AA000079B43F00803079398F8003029E511933A
:102AB000AB46002A41F01180079B43F010030793B7
:102AC000079A12F020037FF4D2AD079911F010029B
:102AD00000F02C850E988DF86F30BBF1000F046864
:102AE00000F104074FF00005C0F248850A4622F0C5
:102AF0008002079254EA05020E9700F043811F46B8
:102B0000CBE51193AB46002A40F0E387079B43F0E7
:102B100010030793079A12F0200300F032830E9FF0
:102B2000073727F00703002703F10801BB450E9183
:102B3000D3E900458DF86F70C0F25C8322F080030A
:102B4000079354EA05037FF425AEBBF1000F00F0B4
:102B5000FE80002440AE303406F8414D34E6119337
:102B6000AB46002A40F09787079B47489D0640F1F7
:102B700097800E9F073727F00703D3E9004503F13D
:102B800008020E92079A12F0010700F0418254EAFF
:102B9000050300F005859DF844208DF8712000277D
:102BA000079A8DF86F703023BB458DF8703042F076
:102BB0000203C0F2B58622F0800343F002030793BC
:102BC00030AE230904F00F0143EA05732A091C46BD
:102BD0001546435C06F8013D54EA0503F1D1F3E5DF
:102BE0000E9911930A688DF8982000230A461F4613
:102BF0008DF86F30043201230893BB4613970E9271
:102C00000D9326AEEEE51193AB46002A3FF4A0AD3E
:102C10008DF86F109CE5079B43F04003079398F8ED
:102C200000306EE498F8003000297FF46AAC01228D
:102C3000202166E4079B43F00103079398F80030D6
:102C40005FE40E9C23680C9318460028234603F18A
:102C50000403FFF6B8AC0E9398F8003051E498F8EE
:102C6000003001222B214CE41193AB46002A3FF4A3
:102C700051AF8DF86F104DE70C830008FFFFEF7F19
:102C8000CC820008C8820008D88200081193AB46A5
:102C9000002A40F02A87079B99489D063FF569AFB7
:102CA000079BDC0640F135840E9A13460433146802
:102CB0000E93002566E798F800306C2B00F0E28454
:102CC000079840F0100007901BE4002A40F00987A5
:102CD000079B9B0640F106840E9A0B991368CD174B
:102CE0000846043229460E92C3E90001FFF7D6BB1D
:102CF000079B43F02003079398F8003001E40E9AF5
:102D00001193166800248DF86F40171D002E00F0F7
:102D1000CD85002DC0F218852A462146304602F0A6
:102D200077F9002800F02A86831B0D93A34623EA37
:102D3000E3730E970893CDF84CB09DF86F704DE596
:102D40006F481192BBF1000F40F073815F464FF066
:102D5000000BCDF834B030AE39E51193002A40F0C5
:102D6000AC86119A002A3FF465AC002301211F466E
:102D700008918DF898208DF86F309B4613930D9134
:102D800026AE2FE5BBF1000F00F0038600270024DC
:102D9000002582E45A480793119254EA05030E97DE
:102DA0004FF000077FF40CAF0024002508E7259CB6
:102DB00068E5119B652B40F3A980149815990022B2
:102DC000002303F0ADFA002800F03581249B4D4A22
:102DD000C9F80020013301340122072B25942493E4
:102DE000C9F8042000F3E88309F108091D9B129A31
:102DF000934203DB079BDB077FF5BAAD249B169953
:102E0000179AC9F8002001330C44072B2594C9F800
:102E10000410249300F3408409F10809129B5D1EFD
:102E2000002D7FF7A5AD384A249B0F92102D40F35B
:102E3000E68110260A9FDDF824B005E009F10809B3
:102E4000103D102D40F3DB8101331034072B259406
:102E50002493C9F800A0C9F80460EFDD23AA5946FD
:102E6000384602F05BFD00287FF4EBAB259C249BE9
:102E70000DF1C009E4E70C9B089A9F1A002F7FF719
:102E800025AD214A249B0F92102F2BDD4A46214667
:102E9000B946102537460A9C099E06E0A9F110099B
:102EA000B9F1100F02F1080218DD01331031072BC0
:102EB00025912493C2F800A05560EFDD23AA314686
:102EC000204602F02BFD00287FF4BBABA9F11009CE
:102ED000B9F1100F2599249B30AAE6DC3E460C463A
:102EE0004F46914601330F9A24933C44072B259477
:102EF00089E8840000F3458209F10809E6E400BF8F
:102F0000EC82000808830008B8820008129B249D08
:102F1000012B40F30882013501340123072D25944C
:102F20002495C9F80060C9F8043000F30D8209F156
:102F30000809169A179BC9F8003001351444072D6B
:102F400025942495C9F8042000F30E8209F108099C
:102F5000002314981599002203F0E2F9129B00282F
:102F600040F0C380013B013501361C44072D2495F8
:102F70002594C9F80060C9F8043000F3F58009F120
:102F80000809199AC9F80420013514441FAB072D0C
:102F900025942495C9F800307FF7E8AC23AA099955
:102FA0000A9802F0BBFC00287FF44BAB259C0DF186
:102FB000C009DDE423AA09990A9802F0AFFC0028B1
:102FC0003FF424ADFFF73DBB23AA09990A9802F00C
:102FD000A5FC00287FF435AB259C0DF1C009B4E4B5
:102FE00023AA09990A9802F099FC00287FF429ABDA
:102FF000259C0DF1C00955E423AA09990A9802F00D
:103000008DFC00287FF41DAB259C0DF1C00959E40F
:10301000BBF1000F8DF86F70C0F2DA8222F08003EE
:10302000079354EA05037FF4CBADBBF1000F3FF4E7
:103030008DAE0027B8E61D9D002D40F3CC82139B7A
:10304000129A9342A8BF1346002B1D460DDD249B08
:10305000C9F8006001332C44072B2594C9F80450AB
:10306000249300F3A38309F10809139B002DA8BF43
:103070005B1B002B1D4640F3F680BA4A249B0F923F
:10308000102D40F3808222461027DDF828B0099CDD
:1030900005E009F10809103D102D40F3738201335A
:1030A0001032072B25922493C9F800A0C9F80470A8
:1030B000EFDD23AA2146584602F030FC00287FF4B9
:1030C000C0AA259A249B0DF1C009E4E723AA099917
:1030D0000A9802F023FC00287FF4B3AA9DF86F70D1
:1030E000259C0DF1C009FFF7CDBB5E1E002E7FF7BA
:1030F00048AF9C4B0F93102E2CDDCDF83480102759
:10310000B046DDF828B0099E06E0A8F11008B8F135
:10311000100F09F108091ADD01351034072D259427
:103120002495C9F800A0C9F80470EEDD23AA314641
:10313000584602F0F3FB00287FF483AAA8F1100898
:10314000B8F1100F259C249D0DF1C009E4DC464622
:10315000DDF834800F9B01353444072D25942495E8
:1031600089E848007FF70BAF23AA09990A9802F073
:10317000D5FB00287FF465AA259C249D0DF1C0098C
:10318000FFE6079911F0100200F008810E988DF803
:103190006F30BBF1000F046800F104074FF0000529
:1031A00026DB0A4622F08002079254EA05020E97B7
:1031B0001F467FF4EFAAC8E4079BD9062AD4079BD1
:1031C0005A0627D50E99B1F900400431E517224679
:1031D0002B460E91FFF7CBBA0E998DF86F30BBF1ED
:1031E000000F0C6801F104074FF0000580F24582E2
:1031F0000E971F4654EA05037FF4CCAAAAE40133D4
:103200000F9A24932C44072B259489E824007FF7F8
:10321000ADABC3E60E9A146813460433E517224695
:103220000E93002A2B4673F10003BFF6A5AA644251
:103230004FF02D0765EB4505BBF1000F8DF86F7062
:10324000FFF6A8AA079B23F080030793FFF7A2BA13
:1032500023AA09990A9802F061FB00287FF4F1A9DA
:10326000259C0DF1C009139A1D9B32441746129AF2
:10327000934247DB079AD50744D412990E44F51BB5
:10328000CB1A9D42A8BF1D46002D2E460DDD249A67
:10329000C9F8007001322C44072A2594C9F804505B
:1032A000249200F3128309F10809002EACBF9D1B84
:1032B0001D46002D7FF75CAB2A4A249B0F92102DF0
:1032C0009DDD10260A9FDDF824B004E009F108090D
:1032D000103D102D93DD01331034072B25942493DA
:1032E000C9F800A0C9F80460F0DD23AA59463846A1
:1032F00002F014FB00287FF4A4A9259C249B0DF167
:10330000C009E5E7249A16981799C9F80010013208
:103310000444072A2594C9F80400249200F3A582E6
:1033200009F10809A9E7079BD8073FF5F4AD013576
:1033300001340123072D25942495C9F80060C9F8AC
:1033400004307FF71CAE0FE723AA09990A9802F010
:10335000E5FA00287FF475A9259C249D0DF1C0098C
:10336000E7E500BFB882000823AA09990A9802F08D
:10337000D5FA00287FF465A9259C249D0DF1C0098C
:10338000E6E523AA09990A9802F0C8FA00287FF412
:1033900058A9259C0DF1C009FFF798BA079911F0BB
:1033A00040033FF419AF0E988DF86F200346BBF130
:1033B000000F03F1040304884FF00005C0F2B98147
:1033C00021F08001079154EA05010E9317467FF41E
:1033D000E1A9FFF7BABB149C22462046159C234660
:1033E000214602F0CFFF002840F01583119BBBF16E
:1033F000FF3F23F020030D9300F07682472B00F06F
:103400009281079B43F480731093159B1F1E149B9E
:103410000893BBBF3B4603F1004700232D230F93C6
:10342000119B662B00F06382462B00F05E810D9BA2
:10343000089A452B21A81EA90CBF0BF101055D467A
:10344000049003911DA802213B4602900195009132
:103450000A9800F0E9FB119B672B064640F07D823D
:10346000079BDA0740F1BF82741908983946002299
:10347000002302F055FF002840F0A481219B9C42CC
:1034800006D930215A1C21921970219B9C42F9D8EF
:103490009B1B12930D9B472B00F08181119B652B89
:1034A00040F36A82119B662B1D9B139300F04782A9
:1034B000139A12998A42C0F23682079BD90700F10B
:1034C000898222EAE2730D92672211920F9A002AF2
:1034D00040F05B810893109B079393469DF86F70B3
:1034E000FFF77CB9079BDF060BD4079B5E0608D568
:1034F0000E9A136804320E92BDF82C201A80FEF743
:10350000CDBF0E9A136804320E920B9A1A60FEF722
:10351000C5BF079B0E9A13F0400F134600F00E81B3
:10352000043314880E930025FFF72CBB079911F084
:10353000400317D00E988DF86F200346BBF1000FA3
:1035400003F1040304884FF00005C0F2F58021F078
:103550008001079154EA05010E933FF413AC17461E
:10356000FFF79BB80E998DF86F30BBF1000F0C6818
:1035700001F104074FF0000580F281800E970027CB
:10358000FFF78BB8144601330F9A24932C44072B72
:10359000259489E824003FF75BAE09F1080962E64B
:1035A0000027BB458DF86F70FFF6FEAB079B23F03D
:1035B00080030793FFF7C6BB23AA09990A9802F074
:1035C000ADF900287FF43DA8259C0DF1C0090DE45C
:1035D0000E9FFFF7E2BB249BB14AC9F800200133DC
:1035E00001340122072B25942493C9F804206FDCB1
:1035F00009F108092DB9129B1BB9079BDF077FF55D
:10360000B7A9249B1699179AC9F8002001330C44D6
:10361000072B2594C9F80410249300F3C98109F1FC
:1036200008096D42002D40F3A3809E4A0F92102D91
:1036300040F3298122461027DDF828B0099C05E0D7
:1036400009F10809103D102D40F31C81013310329F
:10365000072B25922493C9F800A0C9F80470EFDD68
:1036600023AA2146584602F059F900287EF4E9AF12
:10367000259A249B0DF1C009E4E7079A92E5079A81
:10368000FFF735BA079B43F02003079308F10108C1
:1036900098F80030FEF735BF23AA09990A9802F07E
:1036A0003DF900287EF4CDAF259C0DF1C009FFF750
:1036B000B5BB40210A9801F0F1F9099A1060106138
:1036C000002800F0F381099A40235361FEF7D7BE2A
:1036D00023AA09990A9802F021F900287EF4B1AFD3
:1036E0001D9D259C0DF1C00984E721A81EA9049009
:1036F00003911DA803210290089ACDF804B03B461F
:1037000000910A9800F090FA5D460646119B462B00
:1037100006EB05047FF4A9AE3378302B00F06D8101
:103720001D9D2C44A1E6BBF1000F08BF4FF0010B1B
:1037300067E60E9317465DE50E9320E704331468A1
:103740000E930025FFF71EBA304602F079F8A34623
:1037500003460D90FFF7EBBA23AA09990A9802F0E5
:10376000DDF800287EF46DAF259C249B0DF1C00987
:103770001299C9F8006001330C44072B2594249357
:10378000C9F804107FF7F2A808E42D270893109BCE
:1037900007938DF86F704FF0000BFFF720B81D9B5B
:1037A000DD1C11DB9B450FDB139381E623AA0999EE
:1037B0000A9802F0B3F800287EF443AF259C0DF17F
:1037C000C00952E4234663E6119A023A1192013B82
:1037D000002B9DF844201D93B8BF5B428DF87C20E0
:1037E000B4BF2D222B22092B8DF87D2040F3FD80C4
:1037F0000DF18B0004462C4A82FB0321DA17C2EB41
:10380000A10202EB8201A3EB410303F13001092A7B
:10381000134604F8011DEEDC21463033DAB201F81C
:10382000012D884240F23F810DF17E01234601E0E7
:1038300013F8012B01F8012B9842F9D1431C1B1BF3
:103840000DF17E0213441FAA9B1A129A1993012AA2
:1038500013440D9340F3F6800D9B169A13440022F7
:103860000D93139223EAE37330E623AA09990A9889
:1038700002F054F800287EF4E4AE1D9B259C0DF167
:10388000C009FAE4144601330F9A24932C44072B01
:10389000259489E824003FF75FAF09F1080967E73D
:1038A00008830008B882000867666666062D2B4606
:1038B00028BF06230D9323EAE373B3460E971396AE
:1038C000374608938B4EFEF789BF23AA09990A98B9
:1038D00002F024F800287EF4B4AE1D9B129A259CB9
:1038E000D31A0DF1C009E0E44FF0060B89E521A8D9
:1038F0001EA9049003911DA803210290089ACDF8F7
:1039000004B03B4600910A9800F08EF95D460646E9
:1039100000EB0B0400E72D278DF86F70FFF7AEB8B2
:103920000793FFF74DB9169A129B1344139A0D9300
:10393000002A7FDD672223EAE3731192C6E5002B9C
:1039400040F39880BBF1000F6BD1079AD40768D47D
:103950001A460D9223EAE373B8E5119B472B7FF4D7
:1039600083AD079BDB073FF5D1AE219B9B1B1293D9
:103970000D9B472B3FF413AF1D9B28E725EAE5730A
:103980000E9708930D95834613909DF86F70FEF780
:1039900025BF079BDB075F4605D540AE302306F801
:1039A000413DFEF711BFCDF834B030AEFEF70FBF8A
:1039B00023AA09990A9801F0B1FF00287EF441AECC
:1039C0001D9D259C249B0DF1C0092AE6A0460025DB
:1039D000FEF799BD169A139B134467220D9311921B
:1039E00023EAE37372E5219B52E5303330228DF8F0
:1039F0007F308DF87E2020AB25E7089839460022DD
:103A0000002302F08DFC00287FF48AAEC5F1010589
:103A10001D952C4429E5384E384B9DF86F70FFF703
:103A20002FB8139B169A9D1805EB0B030D9323EAF1
:103A3000E3734BE5139B0D9AC3F101031A4413463C
:103A40000D9277E7079B13F001037FF405AF139303
:103A50000D9B23EAE37339E50E9898F80130056869
:103A60000430002D0E90A046BEF64BAD4FF0FF3552
:103A7000FEF747BDBBF1000F02D1079BD80707D562
:103A8000169B5D1C05EB0B030D9323EAE3731DE509
:103A900001230D931AE58DF86F10FFF765B88DF8C7
:103AA0006F10FEF751BE0DF17E03CCE60A9A0C238F
:103AB00013604FF0FF30FEF7CDBD8DF86F10FFF7AC
:103AC00050B98DF86F10FEF7ABBF8DF86F10FEF791
:103AD000C9BD8DF86F10FFF719B88DF86F10FEF79C
:103AE000EBBF8DF86F10FFF7F3B88DF86F10FFF78D
:103AF000D2B800BF00830008D4820008D08200083A
:103B000002690B69934200F38D802DE9F04F03F1B8
:103B1000FF3801F1140700F1140B57F828205BF867
:103B200028304FEA880483B00132B3FBF2F90BEB83
:103B30000403009407EB040A0193B9F1000F39D094
:103B40000025BC46DE462B465CF8046BDEF8002000
:103B5000B4B209FB0455360C2C0C09FB0644ADB27B
:103B60005B1BA6B213FA82F3C6EB124606EB2346A2
:103B70009BB243EA0643E2454EF8043B4FEA144544
:103B80004FEA2643E0D2009B5BF8033093B9019CD7
:103B9000231F9B450CD254F8043C4BB9A4F10803F5
:103BA00002E01A68043B1AB99B4508F1FF38F8D3C4
:103BB000C0F81080044601F021FD00282EDB09F139
:103BC00001095D46002357F8041B28688AB29A1A37
:103BD000090C12FA80F2C1EB104303EB224391B2BD
:103BE00041EA0341BA4545F8041B4FEA2343EAD2B0
:103BF0005BF828200BEB880382B91A1F93450BD280
:103C000053F8042C42B9083B02E01A68043B1AB985
:103C10009B4508F1FF38F8D3C4F81080484603B03C
:103C2000BDE8F08F002070472DE9F04F016C97B090
:103C30008146239C92469B4649B1426C4A600123CF
:103C400093408B6001F0F8FA0023C9F84030BBF1D3
:103C5000000FD84633DB00232360A54B1A4608EA41
:103C60000303934214D0504659460022002302F029
:103C700057FB054648B3229A01231360249B002B6F
:103C800000F0C5809B481860013817B0BDE8F08F80
:103C9000229A42F20F731360BAF1000F00F0A28073
:103CA0009548249B002BF0D0C378002B00F0B18006
:103CB00000F10803249A136017B0BDE8F08F0123C8
:103CC0002BF000482360C346C7E714AA15AB019246
:103CD000009352465B46484601F03AFD5FEA1854AD
:103CE000089040F08880149D159C2C4404F23243C7
:103CF000202B40F39182C3F1400304F2124008FAF2
:103D000003F82AFA00F040EA0800FDF7F7FD012366
:103D1000013CA1F1F87110930022784BFDF7B0FC43
:103D20006DA3D3E90023FDF75FFE6DA3D3E9002364
:103D3000FDF7A8FC064620460F46FDF7EFFD6AA3F7
:103D4000D3E90023FDF750FE02460B4630463946C4
:103D5000FDF798FC06460F4602F02AFB002204906D
:103D600000233046394602F0E5FA002840F0308260
:103D7000049E162E00F22982614B03EBC603D3E9A1
:103D8000000152465B4602F0F3FA002800F0498237
:103D9000731E049300230C932C1B631E029300F1EB
:103DA000328200230593049B002BC0F22382029AE7
:103DB0000B9311461944002302910A93209B092B6F
:103DC00029D8052B40F35886043B20930025209BDF
:103DD000023B032B00F23586DFE813F02C032802A8
:103DE00037035904444B474AC8F31300002814BF53
:103DF0001846104655E7CBF3130343F07F51109557
:103E00005046A4F2FF3441F44011149D84E73E482B
:103E10003BE7C31C4EE70021C9F8441048462091F7
:103E200001F0E4F94FF0FF330693209A0D9301233C
:103E300007902192C9F840000993159B002BC0F20E
:103E4000D180049A0E2A00F3CD802D4B03EBC203E0
:103E5000D3E90034CDE90234219B002BC0F200836A
:103E600056465F4650465946DDE902AB52465B4630
:103E7000FDF7E4FE02F09CFA0446FDF74FFD5246C2
:103E80005B46FDF7B1FD0B46024639463046FDF76D
:103E9000F7FB079D04F130032B70069B012B0646B0
:103EA0000F4605F1010562D00022184BFDF79CFD7D
:103EB0000022002306460F4602F032FA00287ED187
:103EC000CDF81490DDF818A0DDF81CB0DDE902890A
:103ED00029E000BFAFF3008061436F63A787D23F43
:103EE000B3C8608B288AC63FFB799F501344D33FE9
:103EF0000000F07F09830008288300080000F83FD5
:103F0000308300081C830008088300080000244058
:103F1000FDF76AFD0022002306460F4602F000FA74
:103F2000002840F0B78342464B4630463946FDF7FD
:103F300085FE02F03DFA0446FDF7F0FC42464B4692
:103F4000FDF752FD02460B4630463946FDF798FB19
:103F500004F1300E05F801EBCBEB050ED645064615
:103F60000F464FF00002B04BD2D1DDF8149032462C
:103F70003B4630463946FDF785FB06460F4602466E
:103F80000B46DDE9020102F0D5F940B932463B4665
:103F9000DDE9020102F0C4F988B1E3070FD515F895
:103FA000014C079A6B1E04E09A4200F02C8413F82F
:103FB000014D392C03F10105F6D001341C7008992C
:103FC000484601F039F90022049B2A70229A0133F5
:103FD0001360249B002B00F0A78307981D6017B087
:103FE000BDE8F08F099A002A00F01281209A012A78
:103FF00040F35882069B0A9A5F1EBA42C0F297832A
:10400000D71B069B002BC0F28A84059D069B059A50
:104010001A440592029A01211A444846029201F07C
:10402000A3F9064665B1029900290B4608DDA942AD
:10403000059AA8BF2B46D21AED1ACB1A0592029305
:104040000A9B002B40F3FC82099A002A00F00182AF
:10405000002F00F0FE8131463A46484601F026FA2C
:10406000DDF82080014642460646484601F086F9C2
:1040700041460446484601F0DFF80A9BDB1B0A93E1
:1040800040F0E6810121484601F06EF90B9B804625
:10409000002B00F0198201461A46484601F006FA44
:1040A000209B012B804640F3F8820027D8F810307F
:1040B00008EB8303186901F009F9C0F12000029AA6
:1040C000104410F01F0000F0F681C0F12003042B13
:1040D00040F3CA84059BC0F11C00034405931346BA
:1040E000034405440293059B002B05DD21461A4637
:1040F000484601F02BFA0446029B002B05DD4146A1
:104100001A46484601F022FA80460C9B002B40F0EC
:104110007C82069B002B40F39582099B002B40F08C
:10412000F581DDF81CB0069F5D4602E001F08EF8D7
:10413000044641462046FFF7E3FC00F1300A05F84B
:1041400001ABCBEB0503BB424FF00A024FF000037B
:1041500021464846EADB079B069A012AACBF9B181A
:1041600001331D464FF0000B21460122484601F065
:10417000EDF94146089001F041FA002840F30D8323
:1041800015F8012C07996B1E04E08B4200F0788231
:1041900013F8012D392A03F10105F6D001321A7006
:1041A0004146484601F048F8002E3FF408AFBBF105
:1041B000000F05D0B34503D05946484601F03CF8FE
:1041C0003146484601F038F8F9E601230C93E3E55F
:1041D000DDF810804046FDF7A1FB02460B46304655
:1041E000394602F09DF800287FF4C2AD08F1FF3394
:1041F0000493BDE5059A049BD21A5B420A930023FF
:1042000005920B93DAE55B42059300230293CAE51E
:104210000A9F059D099E05E7C3F120080AFA08F0E8
:1042200073E50C90B8E500BF00002440002309931B
:10423000049B219A13440D930133002B069340F302
:104240008382069C26460021172EC9F844100BD9FC
:10425000012204235B0003F11400B042114602F175
:104260000102F7D9C9F84410484600F0BFFF0E2CF0
:104270000790C9F840003FF6E0AD002D3FF4DDADFA
:1042800004995746D8460029CDE90E7840F392822A
:10429000914B01F00F020E1103EBC203F006D3E9BC
:1042A000004540F14C828D4B50465946D3E90823D6
:1042B000FDF7C4FC06F00F0682468B464FF003085C
:1042C00086B1864FF10709D520462946D7E9002354
:1042D000FDF78AFB08F1010804460D46761007F148
:1042E0000807EFD122462B4650465946FDF7A6FC5B
:1042F00006460F460C9B43B10022794B30463946A7
:1043000002F018F8002840F020834046FDF706FB35
:1043100032463B46FDF768FB724B0022FDF7B2F9CF
:10432000069B0446A1F15075002B00F0DF81049B31
:10433000DDF818801193099B002B00F09782664BE3
:10434000694903EBC80353E902230020FDF776FC1B
:1043500022462B46FDF794F982468B463046394675
:1043600002F026F80446FDF7D9FA02460B4630461D
:104370003946FDF785F93034079DE4B206460F460D
:104380002C7002460B4650465946013501F0F0FFAD
:1043900000284CD132463B4600205149FDF770F9C8
:1043A00002460B465046594601F0E2FF002840F015
:1043B0000D83B8F1010F40F3B381079B98440DE0E2
:1043C00000204749FDF75CF952465B4601F0B2FF19
:1043D000002840F0FB82454500F0A2815046594636
:1043E0000022424BFDF700FB0022404B82468B46E9
:1043F00030463946FDF7F8FA0F46064601F0D8FF79
:104400000446FDF78BFA02460B4630463946FDF767
:1044100037F93034E4B252465B4605F8014B0646A4
:104420000F4601F087FF32463B460028C8D0119B5B
:104430000493C4E500230993219B002B40F3898159
:104440001E461C460D930693FDE601230993F3E7F0
:1044500008940A9A0899484601F028F8044611E69B
:10446000069B002B3FF7FCAC40F0DA820022204B89
:10447000DDE90201FDF7B8FA52465B4601F06EFF36
:10448000DDF818804646002800F0F280219B079D49
:10449000DB4304934146484600F0CEFE002E3FF435
:1044A0008EAD8DE6109A002A00F0418203F233436C
:1044B0000A9F059DABE51C20059B03440593029BC9
:1044C0000344054402930EE6209B012B40F38282B5
:1044D0000B9F0120F3E500BF30830008088400082B
:1044E0000000F03F00001C400000E03F00002440BE
:1044F00000001440314600230A22484600F0A6FE80
:104500000D9B002B064640F397820693002D05DD98
:1045100031462A46484601F019F80646002F40F079
:104520007C810596069B079ADDF814B0013BD318F1
:1045300008930AF0010309931746C24651462046E4
:10454000FFF7DEFA31460546204601F057F85A4695
:1045500002905146484601F071F8C268804605F164
:104560003003002A49D101462046069301F046F85F
:1045700041460590484600F05FFE059A069B2AB921
:10458000209919B90999002900F036820299002969
:10459000C0F2E48005D1209919B90999002900F0E9
:1045A000DD80002A00F34D81089A3B7007F1010875
:1045B0009742454600F05481214600230A2248468E
:1045C00000F044FE5E45044631464FF000034FF0D4
:1045D0000A0248460BD000F039FE59460646002331
:1045E0000A22484600F032FE47468346A6E700F01E
:1045F0002DFE474606468346A0E7014648460593FA
:1046000000F01AFE0122059BC0E74146204600F05B
:10461000F5FF0028BFF67DAD2146049C0023013C38
:104620000A224846049400F011FE099B0446002B20
:104630007FF460AF0D9B002B40F3F681069370E58D
:10464000089C1FE5209B022B7FF767AD069B002B84
:1046500040F0798141460522484600F0F7FD0146C9
:104660008046204600F0CAFF002808947FF70EAF6E
:10467000049A07993123013204920B704D1C09E70B
:10468000049A01320492079A3123137088E50123BA
:104690000993CDE5DDF8149091E4BAF1000F7FF4B1
:1046A00004ADCBF31303002B40F03F812BF0004708
:1046B0003F0D3F0537B1059B01330593029B013345
:1046C000029301270B9B0120002B3FF4F8ACEDE493
:1046D0004046FDF723F932463B46FDF785F90022B7
:1046E000BF4BFCF7CFFF0446A1F150753046394669
:1046F0000022BC4BFCF7C4FF22462B4606460F4661
:1047000001F036FE8046002840F00581224605F182
:1047100000433046394601F00DFE08B14646B5E685
:10472000DDE90EABFFF789BB0798FFF7AEBA0A9B2E
:104730000B9A0A97FB1A1A440B92002761E4DDE9F1
:104740000EAB4FF00208BBE51C460021C9F844102F
:104750008AE5012421940D940694F6E7002AD046B8
:10476000CDF814B09A4611DD21460122484600F0EA
:10477000EDFE4146044600F041FF002840F3498128
:10478000BAF1390F00F0068105F1310AB34687F816
:1047900000A07D1C059E089402E504D11AF0010FCB
:1047A00001D0EDE4154615F8013C302B05F1FF3240
:1047B000F8D0F5E4049B5C42002C00F0BF808A4BEB
:1047C00004F00F0203EBC203D3E90023DDE90E017D
:1047D000FDF70AF9241106460F4600F02A81834DA1
:1047E0004FF00208E20709D530463946D5E90023E3
:1047F000FDF7FAF808F1010806460F46641005F1C6
:104800000805EFD176E5079930220A70049A15F869
:10481000014C01320492FFF7D0BB7168484600F0AA
:10482000E5FC33699A1C0546920006F10C010C3038
:1048300000F03EFC29460122484600F087FE059024
:1048400070E6392BCDF814B0D04600F0A38003F108
:10485000010AB34687F800A07D1C059E08949FE4DA
:104860005A46D046B3469A4616467DE45E4908F15C
:10487000FF3A01EBCA0122462B46D1E90001FDF7C0
:10488000B3F8CDE912013946304601F091FD0446F6
:10489000FDF744F802460B4630463946FCF7F0FE79
:1048A000079A3034B8F1010F06460F46147002F132
:1048B00001051ED0079B03EB080BA84600224C4BBA
:1048C00030463946FDF790F80F46064601F070FD78
:1048D0000446FDF723F8303402460B46304639468D
:1048E000FCF7CEFE08F8014BC34506460F46E5D15E
:1048F000554400223F4BDDE91201FCF7C3FE32466E
:104900003B4601F017FD00284CD0119B049315F88D
:10491000014CFFF746BB4FF000084646A8E6059B52
:10492000069A9D1A0023FFF772BB0027CAE6149B64
:104930000A9F059DC3F13603FFF769BBDDE90E67EA
:104940004FF00208D6E40894A0E5069B002B3FF444
:10495000BFAE0D9B002B7FF7E3AE0022244B304609
:104960003946FDF741F806460F4608F10100FCF70D
:10497000D5FF32463B46FDF737F80022184BFCF7CF
:1049800081FE049ADDF83480013A0446A1F15075A5
:104990001192D0E43922B3460894059E3A707D1CEA
:1049A000FFF7F0BBDDE9122300201249FCF768FE97
:1049B00032463B4601F0DCFC08B9B1E6154615F875
:1049C000013C302B05F1FF32F8D030E5119B049308
:1049D000FFF7E7BABAF1000F7FF47AAD61E600BFE6
:1049E00000001C40000014403083000808840008C8
:1049F000000024400000E03F392BCDF814B0D04631
:104A0000DDF808B09A46C5D0BBF1000F3FF7BCAE49
:104A1000BCE67FF4BBAE1AF0010F3FF4B7AEAFE6D1
:104A20004FF00008464631E5209B022B21DC0D9B10
:104A300004E64FF002085DE4209B022B19DC0D9B7D
:104A400063E50024C9F844402146484600F0CEFB07
:104A50004FF0FF3306930D93012307902194C9F87B
:104A600040000993FFF7E9B93FF43DABC0F13C00CA
:104A700022E50D9B0693E9E50125FFF7A8B900BFE4
:104A8000044A054B1268506B002808BF1846F030E6
:104A9000704700BF50060020640A00202DE9F04F47
:104AA00001F10B05162D83B0064640F29F8035F0CC
:104AB000070500F1BF80A94200F2BC8000F092FB24
:104AC000B5F5FC7FC0F09C826B0A00F0BA80042B25
:104AD00000F28381A80900F1390E4FEA4E03383005
:104AE000C44F07EB8303A3F108015C68A14207D11F
:104AF000ACE0002A80F2AC80E468A14200F0A6801D
:104B0000636823F003035A1B0F2AF2DDB9493C699D
:104B100001F1080E744500F0B381636823F00303CC
:104B20005A1B0F2A00F39981002AC1F814E0C1F83A
:104B300010E080F29E80B3F5007F80F06781DB0893
:104B400003F1010C01229B1002FA03F34A6851F8A9
:104B50003C80C4F8088001EBCC091A43A9F1080392
:104B6000E3604A6041F83C40C8F80C4083100124DF
:104B70009C40944200F28A80144206D120F0030047
:104B80006400144200F10400FAD007EBC009CC46DF
:104B90008046DCF80C108C4507D173E1002A80F2C6
:104BA0008181C9688C4500F06D814B6823F0030357
:104BB0005A1B0F2AF2DD0C46D1F80CC054F8088FAE
:104BC0004B1945F001054D6042F00101C8F80CC0D9
:104BD0003046CCF808807B613B61C3F80CE0C3F839
:104BE00008E059609A5000F0FFFA1FE0102921D820
:104BF00000F0F8FA1025062302207E4F07EB83030E
:104C0000A3F108025C68944200F045816368E168A2
:104C1000A56823F00303234430465A68E96042F054
:104C200001028D605A6000F0DFFA0834204603B0BC
:104C3000BDE8F08F00240C232046336003B0BDE8AC
:104C4000F08F80234FF0400E3F2049E770465DE72C
:104C50002344E1685A68A56842F00102E9603046E1
:104C60008D605A6000F0C0FA0834204603B0BDE8F9
:104C7000F08F234430465A6842F001025A6000F037
:104C8000B3FA0834204603B0BDE8F08FBC6863680F
:104C900023F00308A84504D3C5EB08030F2B00F34A
:104CA0008C80554BDFF860911A68D9F800300133D9
:104CB0002A4404EB080A00F0608102F580520F32AA
:104CC00022F47F6222F00F0211463046019200F07A
:104CD0009BFDB0F1FF3F8346019A00F05881824569
:104CE00000F2FC80454B1968DA451144196000F068
:104CF0005381D9F80000DFF810E101301BBFCAEB87
:104D00000B0A5144CEF800B019601BF0070100F007
:104D10001781C1F10800C1F58051834408315A441C
:104D2000C2F30B02C2EB010949463046019300F081
:104D30006BFD431C019B00F03F81CBEB00024A441A
:104D400042F001021968C7F808B04944BC42CBF8E8
:104D500004201960DFF8A49016D0B8F10F0F40F2CC
:104D6000FD806268A8F10C0323F00703E01802F04D
:104D700001024FF0050E1A430F2B6260C0F804E0E9
:104D8000C0F808E000F21C811D4BBC681A68914213
:104D900088BF19601B4B1A689142626888BF19600E
:104DA00022F003029542A2EB050301D80F2B04DC8D
:104DB000304600F019FA002438E7621943F0010385
:104DC00045F0010565603046BA60536000F00CFAAA
:104DD0000834204603B0BDE8F08F142B71D9542B52
:104DE00000F2A480280B00F16F0E4FEA4E036E30E4
:104DF00076E600BF54060020E00B0020E40B002004
:104E0000DC0B0020D80B0020600A00205A0A042A7C
:104E10005ED9142A00F2B38002F15C0149005B32D2
:104E200007EB810C57F82110DFF8DC81ACF1080C9E
:104E30008C4500F088804A6822F00302934202D237
:104E400089688C45F7D1D1F80CC07A68C4F80CC0D9
:104E5000A160CCF80840CC6088E6631942F00107F5
:104E600045F00105656030464B610B61C3F80CE00D
:104E7000C3F808E05F609A50083400F0B5F9D5E651
:104E80004A6873E608F1010818F0030F0CF1080CEA
:104E90007FF47FAE30E0DC68A34208BF02303FF40D
:104EA00035AEB3E60B440C465A68C96854F8085F3F
:104EB00042F001025A603046E9608D6000F094F9DA
:104EC000B4E603F15C0E03F15B004FEA4E0307E624
:104ED0009A0902F1390149003832A1E7BC424A4B34
:104EE0003FF400AF9C68626822F003025AE759F869
:104EF0000839994540F0828010F0030F00F1FF302F
:104F0000F5D17B6823EA04037B6064009C423FF692
:104F1000BDAE002C3FF4BAAE1C4240467FF435AE25
:104F200064001C4200F10400FAD02EE6B3F5AA7F1B
:104F300018D8E80B00F1780E4FEA4E037730CFE532
:104F40004FF48051EBE60121D8F80430921001FAB9
:104F500002F21A43C8F80420614677E70123CBF830
:104F6000043025E740F25452934220D8A80C00F1B7
:104F70007D0E4FEA4E037C30B2E51032A4E6542A8F
:104F800026D81A0B02F16F0149006E3248E7BC685F
:104F9000626822F0030205E7CAF30B0000287FF4E1
:104FA000A8AE4244BB6842F001025A60ECE6FE2320
:104FB0004FF07F0E7E2093E501224FF00009C1E6FD
:104FC00004F10801304600F0A7FDD9F80010DBE637
:104FD000B2F5AA7F05D8DA0B02F1780149007732E1
:104FE0001EE740F254518A4205D89A0C02F17D0125
:104FF00049007C3214E7FE217E2211E77B6884E7BA
:10500000E808431C5B00F8E554060020000000009F
:1050100001F0FF01102A2BDB10F0070F08D010F869
:10502000013B013A8B422DD010F0070F42B3F6D16D
:10503000F0B441EA012141EA014122F007047FF086
:1050400000070023F0E80256083C85EA010586EADD
:10505000010685FA47F5A3FA87F586FA47F6A5FA19
:1050600087F68EB9EED1F0BC01F0FF0102F0070225
:1050700032B110F8013B013A83EA010313B1F8D1D0
:105080000020704701387047002D06BF35460338B1
:10509000073815F0010F07D1013015F4807F02BFEA
:1050A000013015F4C03F0130F0BC0138704700BF3B
:1050B000844641EA000313F003036DD1403A41D323
:1050C00051F8043B40F8043B51F8043B40F8043BE2
:1050D00051F8043B40F8043B51F8043B40F8043BD2
:1050E00051F8043B40F8043B51F8043B40F8043BC2
:1050F00051F8043B40F8043B51F8043B40F8043BB2
:1051000051F8043B40F8043B51F8043B40F8043BA1
:1051100051F8043B40F8043B51F8043B40F8043B91
:1051200051F8043B40F8043B51F8043B40F8043B81
:1051300051F8043B40F8043B51F8043B40F8043B71
:10514000403ABDD2303211D351F8043B40F8043B11
:1051500051F8043B40F8043B51F8043B40F8043B51
:1051600051F8043B40F8043B103AEDD20C3205D321
:1051700051F8043B40F8043B043AF9D2043208D019
:10518000D2071CBF11F8013B00F8013B01D30B888B
:1051900003806046704700BF082A13D38B078DD069
:1051A00010F003038AD0C3F10403D21ADB071CBF3B
:1051B00011F8013B00F8013B80D331F8023B20F8A5
:1051C000023B7BE7043AD9D3013A11F8013B00F8DE
:1051D000013BF9D20B7803704B7843708B78837066
:1051E00060467047704700BF704700BFC36C70B522
:1051F00005460C464BB153F8240080B1026843F8D1
:10520000242000230361C36070BD2122042100F02B
:1052100005FCE86403460028EDD1002070BD0121A3
:1052200001FA04F6721D2846920000F0F7FB0028F0
:10523000F3D044608660E4E731B1C36C4A6853F848
:105240002200086043F82210704700BFF0B50C69D7
:1052500083B00D46064601F1140E0027DEF800006B
:1052600081B202FB01310B0C000C02FB003389B24E
:10527000013701EB0341BC424EF8041B4FEA1343D4
:10528000ECDC3BB1AA68944207DA05EB84020134F6
:1052900053612C61284603B0F0BD69680193013168
:1052A0003046FFF7A3FF2A69023205F10C010746D9
:1052B00092000C30FFF7FCFEF26C6968019B52F81B
:1052C0002100286042F821503D46DEE7030C1B0414
:1052D000B3B90004102310F07F4F04BF000208335D
:1052E00010F0704F04BF0001043310F0404F04BFB2
:1052F00080000233002807DB420003D420207047DF
:105300000023E8E7581C704718467047036813F0FD
:10531000070207D0D90720D49A0720D49B0803603E
:105320000220704799B209B91B0C102213F0FF0F2D
:1053300004BF1B0A0832190704BF1B09043299076E
:1053400004BF9B080232D90704D45B0801D1202096
:1053500070470132036010467047002070475B08B9
:1053600003600120704700BF10B50C460121FFF714
:105370003DFF01224461026110BD00BF2DE9F04FE5
:105380000D691769BD4283B00C46164604DA2A46F9
:1053900034463D460E461746A368616805EB07088C
:1053A0009845C8BF0131FFF721FF00F1140C0CEB49
:1053B0008809CC45009005D26346002143F8041BC0
:1053C0009945FBD806F1140202EB870A04F1140395
:1053D000524503EB850E54D2CDF80490994652F80D
:1053E000043B1FFA83FBBBF1000F20D000204F4687
:1053F0006646054600E01E4657F8044B3068A1B2E9
:1054000083B20BFB0131240C000C4B190BFB040085
:1054100000EB134099B2334641EA0041BE454FEAE2
:10542000104543F8041BE6D8756052F8043C5FEA67
:10543000134B20D0DCF80030674618464D4600215B
:1054400000E037462C88000C0BFB040001449CB2A2
:105450003E4644EA014346F8043B786855F8044B5D
:1054600083B2240C0BFB043404EB1143AE454FEA2A
:105470001341E6D87B6092450CF1040CAFD8DDF8FF
:105480000490B8F1000F0BDD59F8043CA9F10409B0
:105490001BB105E059F8043D13B9B8F10108F9D181
:1054A0000098C0F8108003B0BDE8F08F12F003033D
:1054B0002DE9F041144607462ED10E46A4101CD00B
:1054C000BD6C95B3E3074FF0000806D4641014D008
:1054D0002868A8B10546E307F8D52A46314638467C
:1054E000FFF74CFFB6B17268FB6C641053F82210E2
:1054F000316043F822600646EAD13046BDE8F081CB
:105500002A4629463846FFF739FF2860C0F8008050
:105510000546E0E70646D9E75A1E0B4D002355F82D
:105520002220FFF793FE0646C8E701213846FFF721
:105530005DFE40F2712101220023416102610546B6
:10554000B8640360BEE700BFF88300082DE9F047A8
:1055500091460A698B684FEA691404EB020808F166
:1055600001059D420E468246496804DD5B009D426E
:1055700001F10101FADC5046FFF738FE002C00F182
:10558000140238DD02EB8403002142F8041B93422D
:10559000FBD1346906F1140119F01F0901EB840EE7
:1055A00021D0C9F1200200240F6807FA09FC4CEA57
:1055B00004049C4643F8044B51F8044B8E4524FAEE
:1055C00002F4F1D8CCF804400CB108F10205DAF885
:1055D0004C307268013D53F822100561316043F888
:1055E0002260BDE8F087043B51F8042B43F8042FF8
:1055F0008E45F9D8EBE71346CBE700BF02690B698C
:10560000D21A12D19B0014301431194410B403443F
:1056100001E098420BD253F8044D51F8042D944206
:10562000F7D007D3012010BC704710467047002008
:1056300010BC70474FF0FF30F5E700BF2DE9F8438D
:105640000B690F4611695B1A002B904617D1890030
:1056500007F1140208F114055318294401E09A4295
:105660005ED253F8046D51F8044DA642F7D060D2D3
:105670003B46144647464FF00109984606E05DDB7D
:1056800007F1140502F114044FF000097968FFF7DF
:10569000ADFDD8F810303E69C0F80C9004EB830CD7
:1056A000A64605EB860700F1140400235EF8041BF0
:1056B00055F8048B8AB213FA88F3090C9A1AC1EBD5
:1056C000184303EB224392B242EA0342F44544F802
:1056D000042B4FEA2343E9D8AF4217D9A446294601
:1056E00051F804EB13FA8EF2131403EB1E4392B23B
:1056F00042EA03428F424CF8042B4FEA2343EFD88F
:10570000ED433D4425F0030504352C44043C22B907
:1057100054F8043D013E002BFAD00661BDE8F88341
:105720000021FFF763FD0122002302614361BDE810
:10573000F8832C464FF000091546A7E73B4607F1D2
:10574000140408F1140547464FF0010998469DE7F7
:105750002DE9F04182B001211C46C3F30A571546DA
:10576000089EFFF743FDC4F3130480460FB144F4D1
:10577000801401941DB302A840F8085DFFF7C6FD30
:10578000002834D19DE80C00C8F81420002B0CBF71
:1057900001210221C8F81830C8F81010DFB908EB51
:1057A0008103A0F2324030601869FFF78FFD099B3A
:1057B000C0EB41101860404602B0BDE8F08101A87E
:1057C000FFF7A4FD019BC8F8143001212030C8F870
:1057D0001010002FE3D0099BA7F233470744C0F114
:1057E000350037601860404602B0BDE8F0819DE8A2
:1057F0000C00C0F1200103FA01F10A43C3400193F8
:10580000C8F81420C2E700BF38B5074C002305468E
:1058100008462360FBF7C8FA431C00D038BD236854
:10582000002BFBD02B6038BD0C0C002000000000CA
:105830000000000000000000000000000000000068
:1058400090F800F06DE9024520F007016FF0000CC0
:1058500010F0070491F820F040F049804FF0000468
:105860006FF00700D1E9002391F840F000F1080043
:1058700082FA4CF2A4FA8CF283FA4CF3A2FA8CF37B
:105880004BBBD1E9022382FA4CF200F10800A4FAE2
:105890008CF283FA4CF3A2FA8CF3E3B9D1E9042336
:1058A00082FA4CF200F10800A4FA8CF283FA4CF36D
:1058B000A2FA8CF37BB9D1E9062301F1200182FA27
:1058C0004CF200F10800A4FA8CF283FA4CF3A2FA2D
:1058D0008CF3002BC6D0002A04BF04301A4612BA3B
:1058E000B2FA82F2FDE8024500EBD2007047D1E93E
:1058F000002304F00305C4F100004FEAC50514F0CD
:10590000040F91F840F00CFA05F562EA05021CBF9D
:1059100063EA050362464FF00004A9E72DE9F04F62
:10592000936883B09046002B72D083464FF00009F5
:10593000166808688B680D464C46002C45D09C4282
:105940001F469A4646D3AB8913F4906F2DD06F69EA
:10595000296907EB4707C1EB000A07EBD777601C03
:105960007F105044B8423A4684BF07463A465B052A
:1059700033D511465846FFF791F8002837D05246E4
:1059800029690190FFF794FBAA89019B22F4906298
:1059900042F08002AA81CAEB070203EB0A006F61A2
:1059A0002B612860AA602746A2465246494600F06D
:1059B000B1F9D8F80820AB682868DB1B5044141BE9
:1059C000AB602860C8F8084014B3D6F8009074683B
:1059D0000836B2E72746A246E7E7584600F04CFAF9
:1059E00003460028D7D12969584600F095F80C23C2
:1059F000CBF80030AB89002243F040034FF0FF307A
:105A0000AB81C8F80820C8F8042003B0BDE8F08FC7
:105A10000020C8F8040003B0BDE8F08F10B502FB09
:105A200001F1FFF73BF80446D8B150F8042C22F0FE
:105A30000302043A242A18D8132A14D900231B2A53
:105A40000360436016D9242A8360C36011BF00F14C
:105A500010020361436100F11802002313605360D8
:105A60009360204610BD0246F7E7002100F0B6F92A
:105A7000204610BD00F10802EFE700BFF8B5234F44
:105A80000C460646FFF7AEFBBB685D6825F00305D4
:105A9000291B01F6EF7121F47F6121F00F01A1F5BF
:105AA0008054B4F5805F07DB00213046FFF7ACFE81
:105AB000BB682B44984204D03046FFF795FB00208A
:105AC000F8BD61423046FFF79FFE01300DD0104B0C
:105AD000BA6819682D1B45F001053046091B556051
