:020000040800F2
:100000002814002089010008E5010008E501000826
:10001000E5010008E5010008E50100080000000016
:10002000000000000000000000000000E5010008E2
:10003000E501000800000000E5010008E5010008F6
:10004000E5010008E5010008E5010008E5010008F8
:10005000E5010008E5010008E5010008E5010008E8
:10006000E5010008E5010008E5010008E5010008D8
:10007000E5010008E5010008E5010008E5010008C8
:10008000E5010008E5010008E5010008E5010008B8
:10009000E5010008E5010008E5010008E5010008A8
:1000A000E5010008E5010008E5010008E501000898
:1000B000E5010008E5010008E5010008E501000888
:1000C000E5010008E5010008E5010008E501000878
:1000D000E5010008E5010008E5010008E501000868
:1000E000E5010008E5010008E5010008E501000858
:1000F000E5010008E5010008E5010008E501000848
:10010000E5010008E5010008E5010008E501000837
:10011000E5010008E5010008E5010008E501000827
:10012000E5010008E5010008E5010008E501000817
:10013000E5010008E5010008E5010008E501000807
:10014000E5010008E5010008E5010008E5010008F7
:10015000E5010008E5010008E5010008E5010008E7
:10016000E5010008E5010008E5010008E5010008D7
:10017000E5010008E5010008E5010008E5010008C7
:10018000E5010008E501000880B582B000AF104B22
:100190007B60104B3B6007E03B681A1D3A607A6851
:1001A000111D796012681A603B680B4A9342F3D3C1
:1001B0000A480B494FF000028842B8BF40F8042BB0
:1001C000FADB00F05DF900BF0837BD4680BD00BF17
:1001D000DCA2000800000020D80B0020D80B002073
:1001E000240C002080B400AFFEE700BF80B485B0CF
:1001F00000AF78600023FB607B6843F2B06202FBD3
:1002000003F3BB600023FB6002E0FB680133FB608B
:10021000FA68BB689A42F8D300BF1437BD4680BC69
:10022000704700BFB0B582B000AF4FF000037B60F5
:100230001D4800F079FB00BF02211B4800F090FB35
:100240000346002BF8D0184800F07EFB0346184602
:1002500003F040FC03467B607968144803F088FB98
:100260000346184603F02CF84FF00002104B03F041
:100270007BF803460C4625461C46786803F020F8B8
:1002800002460B462046294603F098F903460C46E1
:100290001846214603F018FB03463B603B681846AE
:1002A0000837BD46B0BD00BF0020014000F07F45CB
:1002B000000059400000000090B585B000AF4FF03D
:1002C0000003BB600023FB600FE0FFF7ABFF0346BA
:1002D0001946B86803F04EFB0346BB604FF4FA7052
:1002E000FFF784FFFB680133FB60F86802F0C6FF8C
:1002F0004FF00002124B03F0A9FA0346002BE4D1A1
:100300001049B86803F0F2FC0346BB60B86802F01D
:10031000D7FF09A3D3E9002303F050F903460C46A5
:100320001846214603F0D0FA03467B607B681846E6
:100330001437BD4690BD00BFD578E92631284E4020
:10034000000014400000A04090B583B000AF78607A
:10035000786802F0B5FF03460C461846214601F0C6
:100360008FFA11A3D3E9002302F0FEFF03460C46E7
:10037000184621460EA3D3E9002302F041FE0346AE
:100380000C461A4623464FF000000B4901F0F8FADC
:1003900003460C461846214603F096FA03461846D3
:1003A0000C37BD4690BD00BF986E1283C0CAF7BF20
:1003B000448B6CE7FBA9D93F0000244000000000FB
:1003C00090B595B002AF0421042000F0C9FEFFF7FC
:1003D00029FF0246264B1B681946104603F086FC8F
:1003E00003461846FFF7B0FF0246224B1A60214B26
:1003F0001B68184602F064FF1BA3D3E9002302F038
:10040000B3FF03460C463846CDE900341A4A402172
:1004100003F034FD78643B46184600F06BFE154B44
:100420001B681649184603F0ADFB0346184601F059
:1004300003FA03461149184603F058FC03461846D0
:1004400002F03EFF08A3D3E9002302F08DFF03462C
:100450000C461846214603F037FA03463B643B6CD2
:1004600018464C37BD4690BDCDCCCCCCCCCC004052
:10047000000000201C0C00208C8400080000C842F2
:1004800090B585B000AF00F0EBFC00F0AFFD00F0E0
:10049000C1FA08237B6000233B720023BB72032355
:1004A0007B720123FB723B1D19463C4800F0CCFBDC
:1004B00000F070FA00F036FE0023FB6000F0B4FBA1
:1004C0000821364800F04EFC0346002BF8D113E01B
:1004D0000121334801F076F90346002B0CD0FB686C
:1004E000092B05DCF86800F07FFAFB680133FB603C
:1004F00001212B4801F090F9FB68092BE8DD294B1D
:100500001B68002B07D1FFF7D7FE0246264B1A6067
:10051000244B45221A6000F077FB0023FB60082182
:100520001E4800F01FFC0346002BF8D100F05CFBD6
:10053000FB68092B1BDC1C4B1B68184602F0C0FE35
:1005400003460C4618462146FFF73AFF0246174B72
:100550001A600121124801F035F90346002B06D03C
:10056000FB680133FB6001210D4801F055F9FB6880
:100570000A2B07D10D4B1B68184600F099FAFB684F
:100580000133FB600821054800F0ECFB0346002B1B
:10059000CED10023FB6000BFC8E700BF00000240CF
:1005A00000040040DC0B002000000020E00B0020D5
:1005B00080B483B000AF78600B46FB70FB78002BF3
:1005C00006D00949084B1A6B7B6813430B6306E09E
:1005D0000549054B1A6B7B68DB4313400B6300BF77
:1005E0000C37BD4680BC70470038024080B483B0F1
:1005F00000AF78600B46FB70FB78002B06D00949F2
:10060000084B1A6C7B6813430B6406E00549054BE5
:100610001A6C7B68DB4313400B6400BF0C37BD468C
:1006200080BC70470038024080B483B000AF78606F
:100630000B46FB70FB78002B06D00949084B5A6C1F
:100640007B6813434B6406E00549054B5A6C7B6895
:10065000DB4313404B6400BF0C37BD4680BC704782
:100660000038024080B485B000AF78603960002364
:10067000FB600023FB727B685B68FB60FB6823F018
:10068000407323F48073FB603B681B791A023B685C
:100690001B681343FA681343FB607B68FA685A606F
:1006A0007B689B68FB60FA68174B1340FB603B68F4
:1006B0001A693B68DB681A433B689B681A433B68CE
:1006C0005B795B001343FA681343FB607B68FA684D
:1006D0009A607B68DB6AFB60FB6823F47003FB6055
:1006E0003B681B7D013BDAB2FB7A1343FB72FB7A5A
:1006F0001B05FA681343FB607B68FA68DA6200BF87
:100700001437BD4680BC7047FDF7FFC080B485B08C
:1007100000AF78600023FB600E4B5B68FB60FA68FB
:100720000D4B1340FB607B681A687B685B681A435B
:100730007B689B681A437B68DB681343FA68134342
:10074000FB60044AFB68536000BF1437BD4680BCA1
:10075000704700BF00230140E030FCFF80B483B04D
:1007600000AF78600B46FB70FB78002B06D07B68EF
:100770009B6843F001027B689A6005E07B689B6898
:1007800023F001027B689A6000BF0C37BD4680BC35
:10079000704700BF80B485B000AF7860084611464E
:1007A0001A460346FB700B46BB7013467B70002352
:1007B000FB600023BB60FB78092B23D97B68DB68D7
:1007C000FB60FB78A3F10A0213465B001344072287
:1007D00002FA03F3BB60BB68DB43FA681340FB60BB
:1007E0007978FB78A3F10A0213465B00134401FAFF
:1007F00003F3BB60FA68BB681343FB607B68FA686D
:10080000DA601EE07B681B69FB60FA7813465B00C8
:100810001344072202FA03F3BB60BB68DB43FA68A8
:100820001340FB607978FA7813465B00134401FAB1
:1008300003F3BB60FA68BB681343FB607B68FA682C
:100840001A61BB78062B21D87B685B6BFB60BB7899
:100850005A1E13469B0013441F2202FA03F3BB6087
:10086000BB68DB43FA681340FB60F978BB785A1E1B
:1008700013469B00134401FA03F3BB60FA68BB689C
:100880001343FB607B68FA685A6347E0BB780C2B24
:1008900021D87B681B6BFB60BB78DA1F13469B007B
:1008A00013441F2202FA03F3BB60BB68DB43FA6800
:1008B0001340FB60F978BB78DA1F13469B001344A2
:1008C00001FA03F3BB60FA68BB681343FB607B6803
:1008D000FA681A6322E07B68DB6AFB60BB78A3F1ED
:1008E0000D0213469B0013441F2202FA03F3BB6060
:1008F000BB68DB43FA681340FB60F978BB78A3F16F
:100900000D0213469B00134401FA03F3BB60FA681F
:10091000BB681343FB607B68FA68DA6200BF143778
:10092000BD4680BC704700BF80B483B000AF786024
:100930007B689B6843F080427B689A6000BF0C37FD
:10094000BD4680BC704700BF80B483B000AF786004
:100950007B68DB6C9BB218460C37BD4680BC704789
:1009600080B485B000AF78600B46FB700023FB734A
:100970007B681A68FB781340002B02D00123FB73BD
:1009800001E00023FB73FB7B18461437BD4680BC97
:10099000704700BF80B584B000AF01210220FFF78F
:1009A00025FE41F28733BB6042F2CF03BB800023B8
:1009B000BB810023FB803B1D19460A4800F054FE12
:1009C0000121084800F028FF01220121054800F01C
:1009D000D5FE0121034800F0B1FE00BF1037BD462F
:1009E00080BD00BF0004004080B582B000AF7860D9
:1009F0007A6813469B019B1ADB00054A13444FF4A7
:100A0000FC71184600F056FB00BF0837BD4680BD9C
:100A1000748C000880B58CB000AF01210120FFF775
:100A2000C7FD01214FF48070FFF7FEFD0223BB627A
:100A3000032387F82C30002387F82F3007F1280391
:100A40001946184800F000F90023BB610023FB6140
:100A500000233B6200237B6207F118031846FFF76F
:100A600055FE00233B6000233B7101237B71002373
:100A7000FB600023BB6000233B6101233B753B46C9
:100A800019460948FFF7EEFD04230122012106481B
:100A9000FFF780FE01210448FFF760FE00BF3037FA
:100AA000BD4680BD00000240002001400000000063
:100AB00090B5ABB002AF78600021002000F050FB91
:100AC0004FF4FC71424800F0F5FA4249786803F0AF
:100AD00059F80346184602F0F3FB3BA3D3E9002381
:100AE00002F06CFD03460C46184621464FF000020A
:100AF000394B02F063FD03460C461846214602F0CE
:100B0000E3FE0346C7F89C300421042000F028FBD4
:100B1000D7F89C0002F0D4FB03460C4607F14C00CA
:100B2000CDE900342D4A402103F0A8F9C7F8980018
:100B3000786802F0C5FB03460C4607F10C00CDE9CE
:100B40000034264A402103F099F9C7F894000021A7
:100B5000052000F005FB07F10C03184600F0CAFA67
:100B60000421042000F0FCFAD7F89C0003F05AF9A5
:100B70000346C7F89030D7F8900002F0AFFF034665
:100B80001946D7F89C0002F0F3FE034611491846B7
:100B900002F0F8FF0346184603F044F90346C7F88D
:100BA0008C30D7F8900000F0FDFA0D4800F0A2FA62
:100BB000D7F88C0000F0F6FA0A4800F09BFA00BF64
:100BC000A437BD4690BD00BFA4703D0AD7A3C03F67
:100BD0007C8A00080000704200004E4024A00008FB
:100BE0002CA0000830A0000880B500AF0021002034
:100BF00000F0B6FA4FF4FC71024800F05BFA00BF57
:100C000080BD00BF9484000880B500AF00210020A3
:100C100000F0A6FA4FF4FC71024800F04BFA00BF56
:100C200080BD00BF8488000880B500AF002100208F
:100C300000F096FA4FF4FC71024800F03BFA00BF56
:100C400080BD00BF8C86000880B487B000AF78609C
:100C5000396000237B6100233B610023FB6000239C
:100C60007B6176E001227B6902FA03F33B613B681A
:100C70001A683B691340FB60FA683B699A4265D188
:100C80007B681A687B695B00032101FA03F3DB438D
:100C90001A407B681A607B681A683B681B791946A2
:100CA0007B695B0001FA03F31A437B681A603B68B7
:100CB0001B79012B03D03B681B79022B2ED17B685B
:100CC0009A687B695B00032101FA03F3DB431A4056
:100CD0007B689A607B689A683B685B7919467B6998
:100CE0005B0001FA03F31A437B689A607B685A68D9
:100CF0007B699BB2194601238B40DB431A407B681A
:100D00005A607B685B683A68927911467A6992B258
:100D100001FA02F292B21A437B685A607B68DA6881
:100D20007B699BB25B00032101FA03F3DB431A40AA
:100D30007B68DA607B68DA683B68DB7919467B6937
:100D40005B0001FA03F31A437B68DA607B690133C5
:100D50007B617B690F2B85D900BF1C37BD4680BCEA
:100D6000704700BF80B485B000AF78600B467B80D1
:100D70000023FB737B681A697B881340002B02D029
:100D80000123FB7301E00023FB73FB7B1846143740
:100D9000BD4680BC704700BF80B483B000AF7860B0
:100DA0000B467B807B687A881A8300BF0C37BD4670
:100DB00080BC704780B483B000AF78600B467B8006
:100DC0007B687A885A8300BF0C37BD4680BC704769
:100DD00080B485B000AF78600B467B8013467B7093
:100DE0000023FB600023BB607A787B8803F0070355
:100DF0009B0002FA03F3FB607B88DB089BB218467A
:100E00007B88DB089BB21A467B68083253F82220A5
:100E10007B8803F007039B000F2101FA03F3DB43F8
:100E200002EA03017B6800F1080243F822107B8884
:100E3000DB089BB21A467B68083253F82220FB6815
:100E40001343BB607B88DB089BB21A467B68083281
:100E5000B96843F8221000BF1437BD4680BC704704
:100E600080B500AF124A124B1B6843F001031360B8
:100E70000F4B00229A600E4A0D4B1B6823F08473BF
:100E800023F4803313600A4B0A4A5A60084A084B1D
:100E90001B6823F480231360054B0022DA6000F006
:100EA0000DF8054B4FF000629A6000BF80BD00BF97
:100EB000003802401030002400ED00E080B483B020
:100EC00000AF00237B6000233B60354A344B1B6836
:100ED00043F480331360324B1B6803F400333B60F0
:100EE0007B6801337B603B68002B03D17B68B3F5E3
:100EF000A06FF0D12A4B1B6803F40033002B02D003
:100F000001233B6001E000233B603B68012B42D1A1
:100F1000234A234B1B6C43F080531364214A214B1B
:100F20001B6843F4804313601D4A1D4B9B6893600C
:100F30001B4A1B4B9B6843F400439360184A184BB1
:100F40009B6843F4A0539360154B174A5A60144AA8
:100F5000134B1B6843F08073136000BF104B1B687A
:100F600003F00073002BF9D0104B40F205621A60B9
:100F70000B4A0B4B9B6823F003039360084A084B12
:100F80009B6843F00203936000BF054B9B6803F02E
:100F90000C03082BF9D100BF0C37BD4680BC70474D
:100FA000003802400070004008544007003C0240F6
:100FB00080B485B000AF78600A4B1B68002B02D16B
:100FC000084B094A1A60074B1B68FB60054B1A68FF
:100FD0007B681344034A1360FB6818461437BD4608
:100FE00080BC7047E40B0020240C002080B500AFCB
:100FF00000F080F900F09AF9002000F041F900209B
:1010000000F026FA012000F03DFA012000F054FA29
:10101000012000F06BFA012000F000FA0A2000F035
:101020007FFA012000F014FA0021212000F042F99B
:101030000021C02000F03EF90021142000F03AF910
:101040000021062000F036F90021202000F032F9BE
:1010500000F068F800210C2000F02CF900BF80BDE2
:1010600080B584B000AF0346FB710023BB73FB79EE
:10107000203BFB710023FB7312E0FA79F97B0C48EB
:1010800013465B0013445B0003440B441B78BB73A3
:10109000BB7B0121184600F00DF9FB7B0133FB738C
:1010A000FB7B052BE9D900BF1037BD4680BD00BFD3
:1010B0000400002080B584B000AF78603960002360
:1010C000FB720023FB600CE0FB687A6813441B781A
:1010D000FB72FB7A0121184600F0ECF8FB68013343
:1010E000FB60FA683B689A42EEDB00BF1037BD46F2
:1010F00080BD00BF80B584B000AF786009E07B6838
:101100001B78FB73FB7B1846FFF7AAFF7B68013354
:101110007B607B681B78002BF1D100BF1037BD4688
:1011200080BD00BF80B582B000AF0023FB710FE02F
:101130000023BB7106E00121002000F0BBF8BB7961
:101140000133BB71BB79532BF5D9FB790133FB71AB
:10115000FB79052BECD900BF0837BD4680BD00BF29
:1011600080B584B000AF03460A46FB711346BB71DD
:10117000FB791A46520013445B00FB73BB7943F0C2
:101180004003DBB20021184600F094F8FB7B63F0CB
:101190007F03DBB20021184600F08CF800BF103747
:1011A000BD4680BD80B584B000AF78607B68304AB2
:1011B000A2FB03239B09DBB23B733B7B1A462D4BFF
:1011C00003FB02F31A467B6813447B607B682A4A60
:1011D000A2FB03235B09DBB27B737B7B1A466FF0B8
:1011E000630303FB02F31A467B6813447B607B684E
:1011F000224AA2FB0323DB08DBB2BB73BB7B1A468C
:101200006FF0090303FB02F31A467B6813447B600B
:101210007B68DBB2FB733B7B3033DBB23B737B7BA6
:101220003033DBB27B73BB7B3033DBB2BB73FB7B16
:101230003033DBB2FB733B7B302B03D03B7B184658
:10124000FFF70EFF7B7B302B03D07B7B1846FFF72D
:1012500007FFBB7B302B03D0BB7B1846FFF700FF9B
:10126000FB7B1846FFF7FCFE00BF1037BD4680BD74
:10127000D34D621018FCFFFF1F85EB51CDCCCCCCB9
:1012800080B582B000AF0346FB71FB79002B05D11E
:101290004FF400710648FFF77FFD04E04FF4007142
:1012A0000348FFF787FD00BF0837BD4680BD00BF7C
:1012B0000004024080B582B000AF03460A46FB71CD
:1012C0001346BB71002000F0A9F8BB79002B03D1B5
:1012D000002000F0D7F802E0012000F0D3F8FB79FD
:1012E000184600F071F8012000F098F800BF0837A8
:1012F000BD4680BD80B582B000AF4FF4F0533B6077
:1013000003237B7101233B710023BB710121022068
:10131000FFF74EF93B4619460348FFF795FC00BF1F
:101320000837BD4680BD00BF0004024080B588B0CC
:1013300000AF01214FF48040FFF758F9012102204E
:10134000FFF736F905220D211D48FFF741FD052263
:101350000F211B48FFF73CFD4FF420437B60022325
:101360003B720023BB720123FB7202237B723B1D85
:1013700019461348FFF768FC4FF44043BB814FF414
:101380008273FB8100233B8202237B820123BB8289
:101390004FF40073FB8210233B8300237B830723DE
:1013A000BB8307F10C031946064800F0CFF8012172
:1013B000044800F00FF900BF2037BD4680BD00BFD4
:1013C000000402400038004080B582B000AF034600
:1013D000FB7100BF0221104800F02AF90346002BE0
:1013E000F8D0FB799BB219460B4800F013F900BF07
:1013F0000221094800F01CF90346002BF8D000BF79
:101400008021054800F014F90346012BF8D000BFF5
:101410000837BD4680BD00BF0038004080B582B0AF
:1014200000AF0346FB71FB79002B05D14FF400613F
:101430000648FFF7BFFC04E04FF400610348FFF7E4
:10144000ABFC00BF0837BD4680BD00BF00040240B2
:1014500080B582B000AF0346FB71FB79002B05D14C
:101460004FF480610648FFF7A5FC04E04FF480616B
:101470000348FFF791FC00BF0837BD4680BD00BFA1
:101480000004024080B582B000AF0346FB71FB79D7
:10149000002B05D14FF480510648FFF78BFC04E088
:1014A0004FF480510348FFF777FC00BF0837BD4673
:1014B00080BD00BF0004024080B582B000AF03468B
:1014C000FB71FB79002B05D14FF400410648FFF773
:1014D00071FC04E04FF400410348FFF75DFC00BFDE
:1014E0000837BD4680BD00BF0004024080B582B011
:1014F00000AF0346FB71FB79002B05D14FF400517F
:101500000648FFF757FC04E04FF400510348FFF78B
:1015100043FC00BF0837BD4680BD00BF0004024049
:1015200080B485B000AF78607B6842F2107202FB35
:1015300003F3FB6000BFFB685A1EFA60002BFAD170
:1015400000BF1437BD4680BC704700BF80B485B073
:1015500000AF786039600023FB817B681B88FB81CA
:10156000FB8903F44153FB813B681A883B685B8825
:1015700013439AB23B689B8813439AB23B68DB885B
:1015800013439AB23B681B8913439AB23B685B8949
:1015900013439AB23B689B8913439AB23B68DB8939
:1015A00013439AB2FB891343FB817B68FA891A8043
:1015B0007B689B8B9BB223F400639AB27B689A830F
:1015C0003B681A8A7B681A8200BF1437BD4680BC0C
:1015D000704700BF80B483B000AF78600B46FB70EB
:1015E000FB78002B08D07B681B889BB243F040033C
:1015F0009AB27B681A8007E07B681B889BB223F055
:1016000040039AB27B681A8000BF0C37BD4680BC8D
:10161000704700BF80B483B000AF78600B467B801A
:101620007B687A889A8100BF0C37BD4680BC7047C2
:1016300080B485B000AF78600B467B800023FB73DD
:101640007B681B899AB27B8813409BB2002B02D027
:101650000123FB7301E00023FB73FB7B1846143767
:10166000BD4680BC704700BF80B485B000AF7860D5
:1016700039600023FB817B681B88FB817B68284ADB
:10168000934213D07B68274A93420FD07B68B3F113
:10169000804F0BD07B68244A934207D07B68234A53
:1016A000934203D07B68224A934208D1FB8923F0FE
:1016B0007003FB813B685A88FB891343FB817B687D
:1016C0001C4A93420CD07B681B4A934208D0FB898A
:1016D00023F44073FB813B681A89FB891343FB8128
:1016E0007B68FA891A803B685A687B68DA623B68D3
:1016F0001A887B681A857B68094A934203D07B6805
:10170000084A934204D13B689B7A9AB27B681A8656
:101710007B6801229A8200BF1437BD4680BC7047A7
:1017200000000140000401400004004000080040A7
:10173000000C0040001000400014004080B483B052
:1017400000AF78600B46FB70FB78002B08D07B68FD
:101750001B889BB243F001039AB27B681A8007E0B2
:101760007B681B889BB223F001039AB27B681A80C6
:1017700000BF0C37BD4680BC704700BF80B483B04B
:1017800000AF78600B467B8013467B707B78002B24
:1017900008D07B689B899AB27B8813439AB27B6896
:1017A0009A8109E07B689B899AB27B88DB439BB274
:1017B00013409AB27B689A8100BF0C37BD4680BC4B
:1017C000704700BF80B485B000AF78600B467B8067
:1017D0000023FB730023BB8100237B817B681B8A72
:1017E0009AB27B881340BB817B689B899AB27B88C5
:1017F00013407B81BB89002B05D07B89002B02D055
:101800000123FB7301E00023FB73FB7B18461437B5
:10181000BD4680BC704700BF80B483B000AF786025
:101820000B467B807B88DB439AB27B681A8200BFC1
:101830000C37BD4680BC704708B5C0F3C7537F3B2B
:10184000162B01460EDC002B024610DB0B4818411C
:10185000014205D04FF480011941114421EA0001F1
:10186000084608BD802BFBD102F084F808BD013387
:1018700000F00041F4D141F07E51F1E7FFFF7F001D
:101880002DE9F0438BB004460D4600F0F1F9374BDB
:1018900093F90080B8F1FF3F06460F460ED022466E
:1018A0002B462046294601F0F9FF814630B9002237
:1018B00000232046294601F0D3FF20B9304639469F
:1018C0000BB0BDE8F0832A4BCDF82090CDE902455E
:1018D000CDE90445019320462946B8F1000F17D100
:1018E000244D4FF0604400220023CDE9064501F06D
:1018F000A3FF002832D002230093684601F06CF861
:1019000098B1089BB3B9DDE906010BB0BDE8F083DF
:10191000194D002400220023CDE9064501F08CFF7B
:1019200068B1022398450093E7D102F0A1FA22237F
:101930000360E6E702F09CFA089B0360E3E70123FB
:10194000B8F1020F00930BD102F092FA2123036049
:101950000A4801F043F8CDE90601D2E701230093DC
:10196000684601F039F80028F2D1EDE72C0200209A
:1019700034A00008FFFFEFC70000F0FF80A00008C0
:101980002DE9F04FDFF8E4928DB006460F4614467D
:101990001D4600F0FDF999F90080B8F1FF3FCDE94F
:1019A000000146D022462B462046294601F076FF0C
:1019B000834600283DD132463B463046394601F049
:1019C0006DFF002282460023002840F084803046CC
:1019D000394601F031FF002830D000220023204694
:1019E000294601F029FF8346A8B10122984B0292B3
:1019F00000210022CDF828A0CDE90467CDE90645F5
:101A0000CDE908120393B8F1000F53D0914900209B
:101A10000DB0BDE8F08F2046294600F0D7FF40B159
:101A2000002200232046294601F010FF002840F044
:101A3000B780DDE900010DB0BDE8F08FDDE9000100
:101A400000F0C4FF804600285DD04FF0000A4FF040
:101A5000000B52465B46DDE9000101F0EDFE002877
:101A6000E7D03046394600F0B1FF0028E1D02046EB
:101A7000294600F0ABFF0028DBD099F90030744A0A
:101A8000039204210022022BCDE90467CDE906452B
:101A9000CDE908AB02910A9203D002A800F09CFFA6
:101AA00070B902F0E5F92223036009E00023002465
:101AB000CDE9083402A800F08FFF002800F08680EE
:101AC0000A9B1BB102F0D4F90A9B0360DDE908010F
:101AD0000DB0BDE8F08F2046294601F0ADFE00288C
:101AE000A7D05C495A4BCDF828B001220020B8F1AC
:101AF000020FCDE90467CDE9064502920393CDE9D3
:101B00000801D7D197E73046394600F05FFF00283B
:101B10009BD02046294600F059FF002895D0DDE9EA
:101B200000231046194601F0B9FE002873D10323A3
:101B300099F900800293464B0A900393CDE904671C
:101B4000CDE906450022002330463946B8F1000FA2
:101B500041D1414F4FF06046CDE9086701F076FE74
:101B600000289AD000223D4B2046294601F0FCFB7C
:101B700004460D4600F038FF02460B462046294633
:101B800001F05AFE002843D1354B99F900804FF0FF
:101B90006042CDE90823B8F1020F7FF47EAF80E701
:101BA00099F900302A4ACDF828B00121CDE904671F
:101BB000CDE9064502910392002B3FF477AF294906
:101BC0000020022BCDE908017FF474AF02F050F938
:101BD0002123036074E7244F0026CDE9086701F054
:101BE00035FE0028D7D000221C4B2046294601F0A4
:101BF000BBFB04460D4600F0F7FE02460B462046AE
:101C0000294601F019FE18B9164B0022CDE9082328
:101C100099F90080BFE799F900900D4BCDF8288025
:101C20000122CDE90467CDE9064502920393B9F19B
:101C3000000F3FF43BAF002200231046194601F08D
:101C4000BDFCB9F1020FCDE90801BFD032E700BFFA
:101C50003CA000080000F03FFFFFEF470000E03F1E
:101C6000FFFFEFC70000F0FF0000F07F2C02002014
:101C7000B1F5801F2DE9F84304460D460B461ADAEC
:101C8000024621F00046324359D000295FDB002292
:101C90003B4B01F069FB0B460D463A498B4204462B
:101CA0006FF035020CDD22462B462046294601F016
:101CB000A9F9BDE8F88333498B424FF00002F2DC0A
:101CC0001815A0F2FF3010444FEAD0794844C3F30E
:101CD000130801F0E3FAC9F57F73033348EA0355AB
:101CE00006460F462046294600F08AFF1EA3D3E988
:101CF0000023804689463046394601F035FB1CA357
:101D0000D3E9002304460D464046494601F02CFB2A
:101D100002460B462046294601F074F916A3D3E982
:101D2000002304460D463046394601F01DFB0246AD
:101D30000B462046294601F065F9BDE8F8830022EC
:101D400000230020104901F039FCBDE8F883024669
:101D50000B4601F055F90022002301F02FFCBDE8ED
:101D6000F88300BFAFF30080362BF111F3FE593D2D
:101D70000EE526157BCBDB3F00609F501344D33F1D
:101D800000005043FFFFEF7F000050C30000000041
:101D90002DE9F04F23F0004858EA020993B03CD0F7
:101DA000714C21F00046A64283460D460CDD06F13B
:101DB000404606F5801656EA0B0038D16B4983463B
:101DC000584613B0BDE8F08F9A4696462BD0A045F2
:101DD000EDDC654CA04578D0002D0F468146CDE95D
:101DE000002376DB0024BEF1000F27D15E4B98451F
:101DF00000F08B805D4B984552D0BAF1804F00F0D7
:101E0000C2835B4B9A4519D1002D17DB48463946F2
:101E100013B0BDE8F04F00F015BDCB46534958460E
:101E200013B0BDE8F08F0028C1D1B045D1DD5148D5
:101E300013B0BDE8F04F00F0D1BD0024484639464C
:101E400000F0C0FDBBF1000F1CD0ED0F013D54EAC6
:101E5000050370D0484B984540F3948003F1047318
:101E6000984540F30584454B9E4270DDBAF1000F62
:101E700070DD3BA3D3E900231046194601F074FA44
:101E800083469DE726B1394B25F040429A42DCD18A
:101E9000BAF1000FC0F2B083002D08DB83468FE754
:101EA000BAF1000FC0F25684CB46394688E706F1F6
:101EB000404606F5801656EA040300F07B84012CA8
:101EC000ECD1834601F100417AE7BEF1000F83D0E7
:101ED0006DE72B4B98452CDCA3F15473984581DDBD
:101EE0004FEA2853A3F2FF33142B40F34B84C3F182
:101EF00034032EFA03F202FA03F39E457FF472AF25
:101F000002F00102C2F102046DE706F1404303F55D
:101F1000801353EA0B0300F03383184B9E4240F3C7
:101F20006083BAF1000F15DBDDE900349B462146E2
:101F300046E7022457E74A4648463B46394601F001
:101F40005FF802460B4601F039FB834638E7BAF1E9
:101F5000000F8EDB4FF0000B594631E7AFF30080E6
:101F60009C7500883CE4377E0000F07F0000F03F65
:101F70000000E03F80A000080000E041FFFFEF3FCD
:101F8000FFFF3F43B6F5801F4FF0000205DAD44B48
:101F900001F0EAF96FF034020E463315D14FC6F363
:101FA0001306A3F2FF33134446F07F5ABE421A468B
:101FB0000D934AF4401A40F3C183CB4B9E4240F349
:101FC000FD83134601330D93C84B0022CDE9062350
:101FD00000270026CDE90867CDE90E67AAF5801A2B
:101FE0000027024653465146CDE90A23DDE9062380
:101FF00001F006F8DDE9062380468946DDE90A019D
:1020000001F000F802460B460020B84901F0D6FA6C
:102010000A460146CDE9101213464946024640469B
:1020200001F0A2F94FEA6A0343F000538C4683465D
:1020300003F50023CDE904BCDA468B46D919002309
:10204000CDE902AB0293DDE902AB002006460F4664
:1020500002460B465046594601F086F902460B46A9
:102060004046494600F0CCFFDDE90623804689461C
:102070003046394600F0C4FF02460B46DDE90A014E
:1020800000F0BEFF52465B4601F06EF902460B4679
:102090004046494600F0B4FFDDE9102301F064F941
:1020A000DDE90467CDE9060132463B463046394654
:1020B00001F05AF978A3D3E9002306460F4601F050
:1020C00053F977A3D3E9002300F09CFF32463B4647
:1020D00001F04AF974A3D3E9002300F093FF3246DC
:1020E0003B4601F041F972A3D3E9002300F08AFFD7
:1020F00032463B4601F038F96FA3D3E9002300F0E4
:1021000081FF32463B4601F02FF96DA3D3E900234E
:1021100000F078FF3246804689463B4630463946D5
:1021200001F022F902460B464046494601F01CF9EF
:10213000524606460F465B46DDE9040100F062FFA9
:10214000DDE9062301F010F932463B4600F05AFF64
:102150005246804689465B465046594601F004F98E
:102160000022634BCDE90A0100F04CFF42464B468A
:1021700000F048FF02980F46064632463B4650465E
:10218000594601F0F1F8002282468B46584B304602
:10219000394600F035FFDDE90A2300F031FF024641
:1021A0000B464046494600F02BFFDDE9042301F0D1
:1021B000DBF83246804689463B46DDE9060101F000
:1021C000D3F802460B464046494600F01BFF8046C6
:1021D000894602460B4650465946CDE904AB00F00D
:1021E00011FFDDE902AB38A3D3E9002350460F46C7
:1021F00001F0BAF8DDE90423CDE902013946504681
:1022000000F0FEFE02460B464046494600F0F8FE4E
:102210002FA3D3E9002301F0A7F82FA3D3E90023CC
:10222000804689465046394601F09EF802460B46E4
:102230004046494600F0E6FEDDE90E2300F0E2FEEE
:1022400080460D98894601F029F8424606460F4619
:102250004B46DDE9020100F0D5FEDDE9082300F080
:10226000D1FE32463B4600F0CDFE32463B4650465C
:102270008B4600F0C5FEDDE9082300F0C1FEDDE974
:10228000022300F0BDFE02460B464046494600F0E0
:10229000B7FE80462EE000BFEF4E454A287ECA3F7B
:1022A00065DBC9934A86CD3F01411DA96074D13FCA
:1022B0004D268F515555D53FFFAB6FDBB66DDB3FDC
:1022C000033333333333E33F000000E009C7EE3F0D
:1022D000FD033ADC09C7EE3FF5015B14E02F3EBE7B
:1022E000000040438E98030079B60B000000F03FD9
:1022F000000008408946013C54EA0503DDE900017D
:1023000014BFD54CD54C0023CDE9043403460C460C
:10231000CDE9023400230293DDE9024522462B4633
:1023200000F06EFE52465B4601F01EF8DDE9002328
:1023300006460F464046494601F016F802460B464F
:102340003046394600F05EFE224606460F462B46D2
:1023500050465946CDE9006701F006F80B460246A3
:10236000804689463046394600F04CFEBC4B9942C7
:1023700006460D460C4640F30E8101F13F4303F53E
:10238000E003034340F0EF819FA3D3E90023DDE99D
:10239000000100F037FE424682468B464B463046EF
:1023A000294600F02DFE02460B465046594601F0E4
:1023B0006BFA002840F0D7812F463B154FF480126E
:1023C000A3F2FE3342FA03F32344C3F30A52A54EA9
:1023D000A2F2FF321641C3F3130B0020C2F1140521
:1023E00023EA06014BF4801B02460B46002C4BFAF5
:1023F00005FB40464946B8BFCBF1000B00F000FE9C
:1024000002460B4680468946DDE9000100F0FAFDF0
:102410004FEA0B5A00247EA3D3E9002320460D4641
:1024200000F0A2FF424606460F464B46204629468C
:1024300000F0E6FD02460B46DDE9000100F0E0FD9C
:1024400075A3D3E9002300F08FFF75A3D3E9002320
:10245000804689462046294600F086FF02460B4604
:102460004046494600F0CEFD8046894602460B466E
:102470003046394600F0C6FD32463B4604460D461E
:1024800000F0BEFD02460B464046494600F0B8FD4E
:102490002246804689462B462046294600F064FFA6
:1024A00061A3D3E9002306460F4600F05DFF60A359
:1024B000D3E9002300F0A4FD32463B4600F054FF70
:1024C0005DA3D3E9002300F09DFD32463B4600F0BA
:1024D0004BFF5BA3D3E9002300F092FD32463B465D
:1024E00000F042FF58A3D3E9002300F08BFD3246F1
:1024F0003B4600F039FF02460B462046294600F0D5
:102500007FFD06460F4602460B462046294600F050
:102510002BFF0022CDE900014FF0804330463946C1
:1025200000F06EFD02460B46DDE9000101F046F8C1
:10253000424606460F464B462046294600F014FF09
:1025400042464B4600F05EFD02460B463046394699
:1025500000F056FD22462B4600F052FD02460B4687
:1025600000203D4900F04CFD8A44BAF5801FC0F2BE
:1025700036815146DDE9042300F0F6FE83461FE470
:10258000F34635491CE44A4648463B46394600F086
:10259000EBFE834614E4344B21F000479F4240F3A6
:1025A0000081324B0B4403430CD142464B4600F0B2
:1025B00027FD02460B46DDE9000101F051F9002834
:1025C0003FF4FBAE22A3D3E90023DDE9040100F0D0
:1025D000CBFE1FA3D3E9002300F0C6FE8346FFF71E
:1025E000EFBBBAF1000FBFF6B5ACDDE900349B4696
:1025F00004F10041FFF7E4BB02460B4600201649F8
:1026000000F0DCFF48E400BFFE822B654715973CD5
:1026100000000000432EE63FEF39FAFE422EE63F6F
:10262000396CA80C615C20BED0A4BE726937663ECE
:10263000F16BD2C541BDBB3E2CDE25AF6A56113FC2
:1026400093BDBE166CC1663F3E5555555555C53FA9
:1026500059F3F8C21F6EA5010000F03F0000F0BF63
:10266000FFFF8F40FFFF0F00FFCB904000346F3F14
:102670006F4B9E427FF76BAC6E4B9E423FF7F6ABC3
:1026800000226C4B00F0BCFC5BA3D3E900230646A0
:102690000F4600F069FE5AA3D3E90023804689461D
:1026A0003046394600F060FE002282468B46624B7F
:1026B0003046394600F058FE02460B4652A1D1E999
:1026C000000100F09DFC32463B4600F04DFE024604
:1026D0000B460020594900F093FC3246CDE9020137
:1026E0003B463046394600F03FFE02460B46DDE9E8
:1026F000020100F039FE46A3D3E9002300F034FEC6
:1027000002460B465046594600F07AFC02460B46FC
:1027100006460F464046494600F074FC42464B468A
:10272000002082468B4600F06BFC02460B4630468A
:10273000394600F065FC80468946DCE5002200232E
:10274000CDE90823CDE90E233A4B00220027CDE93D
:10275000062346E44A463B460020364900F02EFF59
:102760008346FFF72DBB2CA3D3E90023DDE9040149
:1027700000F0FAFD28A3D3E9002300F0F5FD83461D
:10278000FFF71EBBBEF1000F7FF457ABC3F114037C
:1027900048FA03F202FA03F3984524D07446FFF78F
:1027A00029BB264B9F423FF708AEDDE902349A462B
:1027B0009B462FE602460B46FFF7C1BB18A3D3E9A1
:1027C0000023CDE9082318A3D3E90023CDE90E2384
:1027D0001B4B00224FF48027CDE9062301E45A4623
:1027E00000F08EF9C6E602F00102C2F10204FFF722
:1027F00001BB00BFAFF30080000000604715F73F4A
:1028000044DF5DF80BAE543E555555555555D53FF3
:10281000FE822B654715F73F9C7500883CE4377EA8
:102820000000004003B8E23F06D0CF43EBFD4C3E32
:10283000FEFFEF3F0000F03F0000D03F0000E03F10
:102840000000F83F2DE9F8435D4EB6460E40764550
:102850000C46054600F0958000290B46024673DDC4
:102860000F157ED0A7F2FF37C3F31303F80743F425
:10287000801364D403EBD27100260B447F10520006
:10288000B64616204FF400110EEB01049C424FEAAD
:10289000D2754FEA420203DC1B1B04EB010E0E440F
:1028A000013805EB43034FEA5101EDD18446202462
:1028B0004FF0004109E020D003EBD275013C4FEA14
:1028C00051012B444FEA420220D09E4501EB0C05FA
:1028D000F1DA002D05EB010C09DBF0469542CEEB59
:1028E000030300D9013B521B0844C646E4E7BCF190
:1028F000000FF2DB0EF10108F0E7954217D8002D2A
:1029000005EB010C47DB98460023ECE7134310D19D
:102910004008731003F17F5303F50013F20703EB34
:10292000075948BF40F000404946BDE8F883734668
:10293000C2E7411C33D000F001031844E8E75B0014
:1029400003EBD273520095E721F000460643ECD02A
:1029500069BB0F46D30A153F5205002BFAD0DD02A2
:1029600020D4002100E001465B00DC0201F10100FF
:10297000F9D5C0F1200422FA04F423437F1A8240DF
:1029800070E702460B4600F0EFFC2A46234600F0B3
:1029900039FBBDE8F883BCF1000FABDAB3E70136D1
:1029A0002046B6E720244FF0FF310020E3E702463F
:1029B0000B4600F025FB02460B4600F0FFFDB4E796
:1029C0000000F07F21F00041704700BF41F000415E
:1029D00001F58010C00F70470020704700200149AA
:1029E000704700BF0000F87FF0B5C1F30A5EAEF299
:1029F000FF36132E83B002460B460C464FEAD175C4
:102A000007462EDC002E49DB3B49314103EA010039
:102A100010432BD049080B4053EA02070CD04FF467
:102A20008023132E24EA010143FA06F444EA010448
:102A30000CBF4FF000470027304B03EBC505214684
:102A4000D5E90045384622462B4600F0DBFACDE9B1
:102A5000000122462B46DDE9000100F0D1FA03B067
:102A6000F0BD332E06DDB6F5806F42D01046194614
:102A700003B0F0BDAEF2134E4FF0FF3121FA0EF16C
:102A80000842F3D049080842D6D04FF0804320EAEC
:102A9000010143FA0EFE4EEA0107CDE721F00041A5
:102AA0000143E3D0C3F31301144E41EA000CCCF10F
:102AB000000106EBC506D6E9006741EA0C0C5C0C88
:102AC0004FEA1C3C0CF4002C64044CEA040132462E
:102AD0003B4600F097FACDE900013B463246DDE97E
:102AE000000100F08DFA21F0004444EAC573194654
:102AF000BEE700F087FABBE7FFFF0F0040A0000829
:102B0000F8B5C1F30A5604460D460B46174606BBF8
:102B100021F00043034325D00022354B00F024FC74
:102B2000344A974204460D460B462ADBC1F30A5647
:102B3000363E3E4440F2FE72964228DC002E12DD04
:102B400023F0FF4323F4E00343EA065520462946D9
:102B5000F8BD40F2FF729642EBD102460B4600F000
:102B600051FAF8BDF8BD16F1350F1DDA4CF25033AD
:102B70009F4222462B4625DC19A1D1E9000100F035
:102B800033FA17A3D3E9002300F0EEFBF8BD224689
:102B90002B4615A1D1E9000100F026FA12A3D3E9D2
:102BA000002300F0E1FBF8BD23F0FF4323F4E00332
:102BB000363643EA06552046294600220E4B00F0E1
:102BC000D3FBF8BD08A1D1E9000100F00DFA06A37E
:102BD000D3E9002300F0C8FBF8BD00BFAFF30080CD
:102BE00059F3F8C21F6EA5019C7500883CE4377E3E
:102BF00000005043B03CFFFF0000903C000000008C
:102C00002DE9F04FB1F5801F85B006460F460B4603
:102C10005ADA024621F00044224300F0F8800029ED
:102C2000C0F27A810022D64B00F09EFB0B460F4685
:102C3000D4498B4206466FF035024ADCC3F31305D4
:102C400005F5152404F6647404F4801E8EF07F519B
:102C500081F440111B15A3F2FF3341EA05079C18CC
:102C600030460022C84B394604EB1E5400F0C8F928
:102C7000AB1CC3F31303022B82468B464FF00002BA
:102C800030DC002300F0D8FD002800F0C980002CC3
:102C900000F04B81204600F001FBA5A3D3E90023FF
:102CA00006460F4600F060FBA3A3D3E900230446C9
:102CB0000D463046394600F057FB02460B4620468B
:102CC000294600F09FF90AE0AE498B424FF000021E
:102CD000B4DD32463B463046394600F093F905B044
:102CE000BDE8F08F4FF0804300F08CF902460B46B0
:102CF0005046594600F062FC064620460F4600F05A
:102D0000CDFA3246CDE900013B4630463946CDE9A1
:102D1000026700F029FB02460B468046894600F018
:102D200023FB87A3D3E9002306460F4600F01CFBD4
:102D300085A3D3E9002300F065F932463B4600F055
:102D400013FB83A3D3E9002300F05CF932463B4632
:102D500000F00AFB80A3D3E9002300F053F94246B8
:102D60004B4600F001FB7EA3D3E900238046894651
:102D70003046394600F0F8FA7BA3D3E9002300F08F
:102D800041F932463B4600F0EFFA79A3D3E900233C
:102D900000F038F932463B4600F0E6FA0B460246B0
:102DA0004946404600F02EF9A5F5C223C5F5D725C2
:102DB000A3F27A4351351D43002D8046894656DDE6
:102DC0000022724B5046594600F0CEFA52465B46FE
:102DD00000F0CAFA06460F46002C68D132463B4640
:102DE0004046494600F00EF9DDE9022300F0BCFA46
:102DF00002460B463046394600F002F902460B46C1
:102E00005046594600F0FCF805B0BDE8F08F0022AE
:102E1000002300205E4900F0D1FB05B0BDE8F08F33
:102E200055A3D3E900235046594600F09DFA0246C7
:102E30000B460020554900F0E3F8524606460F467F
:102E40005B465046594600F08FFA02460B46304624
:102E5000394600F089FA06460F46002C40F09A8069
:102E600002460B465046594600F0CAF837E7002C98
:102E700000F0A4802EA3D3E90023DDE9000100F0D7
:102E800073FA42464B4604460D465046594600F0FA
:102E9000B7F8DDE9022300F067FA27A3D3E900239E
:102EA00006460F46DDE9000100F05EFA21E020A3AE
:102EB000D3E90023DDE9000100F056FA32463B4633
:102EC00004460D464046494600F09CF8DDE90223E1
:102ED00000F04AFA18A3D3E9002380468946DDE9C9
:102EE000000100F041FA02460B464046494600F018
:102EF00089F802460B463046394600F081F85246C2
:102F00005B4600F07DF802460B462046294600F05D
:102F100077F805B0BDE8F08F02460B4600F070F878
:102F20000022002300F04AFBD9E600200021D6E66B
:102F30000000E0FE422EE63F763C7935EF39EA3D6F
:102F400044523EDF12F1C23FDE03CB966446C73FD8
:102F5000599322942449D23F935555555555E53FF1
:102F60009FC678D0099AC33FAF788E1DC571CC3FFC
:102F700004FA97999999D93F555555555555D53FC7
:102F800000005043FFFFEF7F0000F03F0000E03FF4
:102F9000000050C3204600F081F90FA3D3E90023BD
:102FA0008046894600F0E0F90DA3D3E900230446EA
:102FB0000D464046494600F0D7F99AE702460B46CF
:102FC0005046594600F01CF8DDE9022300F0CCF928
:102FD00014E700BFAFF300800000E0FE422EE63FA2
:102FE000763C7935EF39EA3D03F0004321F00042A9
:102FF00042EA0301704700BF81F0004102E000BFD8
:1030000083F0004330B54FEA41044FEA430594EAA8
:10301000050F08BF90EA020F1FBF54EA000C55EAE3
:10302000020C7FEA645C7FEA655C00F0E2804FEAB4
:103030005454D4EB5555B8BF6D420CDD2C4480EA96
:10304000020281EA030382EA000083EA010180EAC6
:10305000020281EA0303362D88BF30BD11F0004F14
:103060004FEA01314FF4801C4CEA113102D040424A
:1030700061EB410113F0004F4FEA03334CEA133385
:1030800002D0524263EB430394EA050F00F0A7809D
:10309000A4F10104D5F1200E0DDB02FA0EFC22FA98
:1030A00005F2801841F1000103FA0EF2801843FA8C
:1030B00005F359410EE0A5F120050EF1200E012A7D
:1030C00003FA0EFC28BF4CF0020C43FA05F3C018BB
:1030D00051EBE37101F0004507D54FF0000EDCF134
:1030E000000C7EEB00006EEB0101B1F5801F1BD3DD
:1030F000B1F5001F0CD349085FEA30004FEA3C0CE1
:1031000004F101044FEA445212F5800F80F09A80D6
:10311000BCF1004F08BF5FEA500C50F1000041EBDA
:10312000045141EA050130BD5FEA4C0C404141EBDE
:10313000010111F4801FA4F10104E9D191F0000F05
:1031400004BF01460020B1FA81F308BF2033A3F188
:103150000B03B3F120020CDA0C3208DD02F1140C7F
:10316000C2F10C0201FA0CF021FA02F10CE002F1BA
:103170001402D8BFC2F1200C01FA02F120FA0CFCB3
:10318000DCBF41EA0C019040E41AA2BF01EB0451FC
:10319000294330BD6FEA04041F3C1CDA0C340EDCFA
:1031A00004F11404C4F1200220FA04F001FA02F33D
:1031B00040EA030021FA04F345EA030130BDC4F1FB
:1031C0000C04C4F1200220FA02F001FA04F340EAF0
:1031D0000300294630BD21FA04F0294630BD94F0A1
:1031E000000F83F4801306BF81F480110134013D88
:1031F0004EE77FEA645C18BF7FEA655C29D094EAF9
:10320000050F08BF90EA020F05D054EA000C04BF76
:103210001946104630BD91EA030F1EBF0021002061
:1032200030BD5FEA545C05D14000494128BF41F000
:10323000004130BD14F580043CBF01F5801130BD64
:1032400001F0004545F0FE4141F470014FF00000EF
:1032500030BD7FEA645C1ABF194610467FEA655CA0
:103260001CBF0B46024650EA013406BF52EA033542
:1032700091EA030F41F4002130BD00BF90F0000F30
:1032800004BF0021704730B54FF4806404F132046C
:103290004FF000054FF0000150E700BF90F0000F25
:1032A00004BF0021704730B54FF4806404F132044C
:1032B00010F0004548BF40424FF000013EE700BF1C
:1032C00042004FEAE2014FEA31014FEA02701FBFAC
:1032D00012F07F4393F07F4F81F06051704792F07E
:1032E000000F14BF93F07F4F704730B54FF46074F8
:1032F00001F0004521F0004120E700BF50EA010243
:1033000008BF704730B54FF000050AE050EA0102EF
:1033100008BF704730B511F0004502D5404261EB5F
:1033200041014FF4806404F132045FEA915C3FF4A0
:10333000DCAE4FF003025FEADC0C18BF03325FEA39
:10334000DC0C18BF033202EBDC02C2F1200300FAEE
:1033500003FC20FA02F001FA03FE40EA0E0021FA13
:1033600002F11444C1E600BF70B54FF0FF0C4CF4FD
:10337000E06C1CEA11541DBF1CEA135594EA0C0FB3
:1033800095EA0C0F00F0DEF82C4481EA030621EAEE
:103390004C5123EA4C5350EA013518BF52EA033529
:1033A00041F4801143F4801338D0A0FB02CE4FF0DB
:1033B0000005E1FB02E506F00042E0FB03E54FF00B
:1033C0000006E1FB03569CF0000F18BF4EF0010E03
:1033D000A4F1FF04B6F5007F64F5407404D25FEAFF
:1033E0004E0E6D4146EB060642EAC62141EA5551B2
:1033F0004FEAC52040EA5E504FEACE2EB4F1FD0CF4
:1034000088BFBCF5E06F1ED8BEF1004F08BF5FEA71
:10341000500E50F1000041EB045170BD06F0004623
:1034200046EA010140EA020081EA0301B4EB5C04D0
:10343000C2BFD4EB0C0541EA045170BD41F48011C8
:103440004FF0000E013C00F3AB8014F1360FDEBFED
:10345000002001F0004170BDC4F10004203C35DAC9
:103460000C341BDC04F11404C4F1200500FA05F34C
:1034700020FA04F001FA05F240EA020001F00042ED
:1034800021F0004110EBD37021FA04F642EB060163
:103490005EEA430E08BF20EAD37070BDC4F10C048D
:1034A000C4F1200500FA04F320FA05F001FA04F251
:1034B00040EA020001F0004110EBD37041F100013D
:1034C0005EEA430E08BF20EAD37070BDC4F1200548
:1034D00000FA05F24EEA020E20FA04F301FA05F2B0
:1034E00043EA020321FA04F001F0004121FA04F258
:1034F00020EA020000EBD3705EEA430E08BF20EA28
:10350000D37070BD94F0000F0FD101F00046400061
:1035100041EB010111F4801F08BF013CF7D041EAE3
:10352000060195F0000F18BF704703F000465200E7
:1035300043EB030313F4801F08BF013DF7D043EAB8
:103540000603704794EA0C0F0CEA135518BF95EA6E
:103550000C0F0CD050EA410618BF52EA4306D1D1F5
:1035600081EA030101F000414FF0000070BD50EA14
:10357000410606BF1046194652EA430619D094EA9E
:103580000C0F02D150EA013613D195EA0C0F05D188
:1035900052EA03361CBF104619460AD181EA0301DC
:1035A00001F0004141F0FE4141F470014FF0000094
:1035B00070BD41F0FE4141F4780170BD70B54FF02F
:1035C000FF0C4CF4E06C1CEA11541DBF1CEA1355AF
:1035D00094EA0C0F95EA0C0F00F0A7F8A4EB050491
:1035E00081EA030E52EA03354FEA013100F0888088
:1035F0004FEA03334FF0805545EA131343EA126351
:103600004FEA022245EA111545EA10654FEA002605
:103610000EF000419D4208BF964244F1FD0404F5BE
:10362000407402D25B084FEA3202B61A65EB03051A
:103630005B084FEA32024FF480104FF4002CB6EBD7
:10364000020E75EB030E22BFB61A754640EA0C0057
:103650005B084FEA3202B6EB020E75EB030E22BF97
:10366000B61A754640EA5C005B084FEA3202B6EBD8
:10367000020E75EB030E22BFB61A754640EA9C0097
:103680005B084FEA3202B6EB020E75EB030E22BF67
:10369000B61A754640EADC0055EA060E18D04FEA25
:1036A000051545EA16754FEA06164FEAC30343EAC5
:1036B00052734FEAC2025FEA1C1CC0D111F4801F92
:1036C0000BD141EA00014FF000004FF0004CB6E78B
:1036D00011F4801F04BF01430020B4F1FD0C88BF2A
:1036E000BCF5E06F3FF6AFAEB5EB030C04BFB6EB35
:1036F000020C5FEA500C50F1000041EB045170BD28
:103700000EF0004E4EEA113114EB5C04C2BFD4EB54
:103710000C0541EA045170BD41F480114FF0000ED8
:10372000013C90E645EA060E8DE60CEA135594EA54
:103730000C0F08BF95EA0C0F3FF43BAF94EA0C0F57
:103740000AD150EA01347FF434AF95EA0C0F7FF4CC
:1037500025AF104619462CE795EA0C0F06D152EA20
:1037600003353FF4FDAE1046194622E750EA410604
:1037700018BF52EA43067FF4C5AE50EA41047FF415
:103780000DAF52EA43057FF4EBAE12E74FF0FF3C7A
:1037900006E000BF4FF0010C02E000BF4FF0010C4B
:1037A0004DF804CD4FEA410C7FEA6C5C4FEA430CC4
:1037B00018BF7FEA6C5C1BD001B050EA410C0CBF13
:1037C00052EA430C91EA030F02BF90EA020F002075
:1037D000704710F1000F91EA030F58BF994208BFDC
:1037E00090422CBFD8176FEAE37040F00100704799
:1037F0004FEA410C7FEA6C5C02D150EA013C07D1F0
:103800004FEA430C7FEA6C5CD6D152EA033CD3D03A
:103810005DF8040B704700BF8446104662468C4634
:103820001946634600E000BF01B5FFF7B7FF002867
:1038300048BF10F1000F01BD4DF808EDFFF7F4FF90
:103840000CBF012000205DF808FB00BF4DF808ED1B
:10385000FFF7EAFF34BF012000205DF808FB00BF3E
:103860004DF808EDFFF7E0FF94BF012000205DF860
:1038700008FB00BF4DF808EDFFF7CEFF94BF012015
:1038800000205DF808FB00BF4DF808EDFFF7C4FF0E
:1038900034BF012000205DF808FB00BF4FEA410C57
:1038A0007FEA6C5C02D150EA013C0AD14FEA430C3A
:1038B0007FEA6C5C02D152EA033C02D14FF0000077
:1038C00070474FF0010070474FEA4102B2F1E04308
:1038D00024BFB3F5001CDCF1FE5C0DD901F0004CF7
:1038E0004FEAC0024CEA5070B2F1004F40EB830047
:1038F00008BF20F00100704711F0804F21D113F173
:103900003872BCBF01F00040704741F480114FEAAB
:103910005252C2F11802C2F1200C10FA0CF320FA34
:1039200002F018BF40F001004FEAC1234FEAD32351
:1039300003FA0CFC40EA0C0023FA02F34FEA4303BB
:10394000CCE77FEA625307D150EA01331EBF4FF044
:10395000FE4040F44000704701F0004040F0FE405F
:1039600040F40000704700BF80F0004002E000BF5C
:1039700081F0004142001FBF5FEA410392EA030F5A
:103980007FEA226C7FEA236C6AD04FEA1262D2EBA4
:103990001363C1BFD218414048404140B8BF5B42A9
:1039A000192B88BF704710F0004F40F4000020F042
:1039B0007F4018BF404211F0004F41F4000121F058
:1039C0007F4118BF494292EA030F3FD0A2F10102A2
:1039D00041FA03FC10EB0C00C3F1200301FA03F1E0
:1039E00000F0004302D5494260EB4000B0F5000F03
:1039F00013D3B0F1807F06D340084FEA310102F1C2
:103A00000102FE2A51D2B1F1004F40EBC25008BF73
:103A100020F0010040EA03007047490040EB00003D
:103A200010F4000FA2F10102EDD1B0FA80FCACF16C
:103A3000080CB2EB0C0200FA0CF0AABF00EBC2506B
:103A400052421843BCBFD0401843704792F0000F59
:103A500081F4000106BF80F400000132013BB5E7AC
:103A60004FEA41037FEA226C18BF7FEA236C21D022
:103A700092EA030F04D092F0000F08BF0846704787
:103A800090EA010F1CBF0020704712F07F4F04D155
:103A9000400028BF40F00040704712F100723CBF68
:103AA00000F50000704700F0004343F0FE4040F492
:103AB000000070477FEA226216BF08467FEA236350
:103AC0000146420206BF5FEA412390EA010F40F43B
:103AD000800070474FF0000304E000BF10F0004387
:103AE00048BF40425FEA000C08BF704743F096436E
:103AF00001464FF000001CE050EA010208BF704789
:103B00004FF000030AE000BF50EA010208BF70470F
:103B100011F0004302D5404261EB41015FEA010C24
:103B200002BF84460146002043F0B64308BFA3F11C
:103B30008053A3F50003BCFA8CF2083AA3EBC253FE
:103B400010DB01FA02FC634400FA02FCC2F120021D
:103B5000BCF1004F20FA02F243EB020008BF20F054
:103B60000100704702F1200201FA02FCC2F12002BA
:103B700050EA4C0021FA02F243EB020008BF20EAAF
:103B8000DC7070474FF0FF0C1CEAD0521EBF1CEADD
:103B9000D15392EA0C0F93EA0C0F6FD01A4480EACB
:103BA000010C400218BF5FEA41211ED04FF00063B4
:103BB00043EA501043EA5111A0FB01310CF00040E0
:103BC000B1F5000F3EBF490041EAD3715B0040EA06
:103BD000010062F17F02FD2A1DD8B3F1004F40EBD6
:103BE000C25008BF20F00100704790F0000F0CF0A9
:103BF000004C08BF49024CEA502040EA51207F3A6D
:103C0000C2BFD2F1FF0340EAC250704740F4000047
:103C10004FF00003013A5DDC12F1190FDCBF00F038
:103C200000407047C2F10002410021FA02F1C2F1E6
:103C3000200200FA02FC5FEA310040F1000053EA82
:103C40004C0308BF20EADC70704792F0000F00F0D0
:103C5000004C02BF400010F4000F013AF9D040EAD6
:103C60000C0093F0000F01F0004C02BF490011F46A
:103C7000000F013BF9D041EA0C018FE70CEAD15368
:103C800092EA0C0F18BF93EA0C0F0AD030F0004CE8
:103C900018BF31F0004CD8D180EA010000F000409C
:103CA000704790F0000F17BF90F0004F084691F05A
:103CB000000F91F0004F14D092EA0C0F01D1420294
:103CC0000FD193EA0C0F03D14B0218BF084608D15D
:103CD00080EA010000F0004040F0FE4040F40000A7
:103CE000704740F0FE4040F4400070474FF0FF0C3A
:103CF0001CEAD0521EBF1CEAD15392EA0C0F93EA81
:103D00000C0F69D0A2EB030280EA010C49024FEAD2
:103D1000402037D04FF0805343EA111143EA10138B
:103D20000CF000408B4238BF5B0042F17D024FF443
:103D3000000C8B4224BF5B1A40EA0C00B3EB510F1E
:103D400024BFA3EB510340EA5C00B3EB910F24BF07
:103D5000A3EB910340EA9C00B3EBD10F24BFA3EB8C
:103D6000D10340EADC001B0118BF5FEA1C1CE0D154
:103D7000FD2A3FF650AF8B4240EBC25008BF20F007
:103D8000010070470CF0004C4CEA50207F32C2BF5B
:103D9000D2F1FF0340EAC250704740F400004FF0F8
:103DA0000003013A37E792F0000F00F0004C02BF29
:103DB000400010F4000F013AF9D040EA0C0093F0F3
:103DC000000F01F0004C02BF490011F4000F013B4D
:103DD000F9D041EA0C0195E70CEAD15392EA0C0FB5
:103DE00008D142027FF47DAF93EA0C0F7FF470AFED
:103DF000084676E793EA0C0F04D14B023FF44CAF30
:103E000008466EE730F0004C18BF31F0004CCAD1C4
:103E100030F000427FF45CAF31F000437FF43CAF00
:103E20005FE700BF4FEA4002B2F1FE4F0FD34FF001
:103E30009E03B3EB12620DD94FEA002343F0004317
:103E400010F0004F23FA02F018BF404270474FF0C5
:103E50000000704712F1610F01D1420205D110F04C
:103E6000004008BF6FF0004070474FF000007047FF
:103E7000014B1868704700BF580600200CB4F0B51D
:103E8000244B00299DB01D683EDB4FF402730C46A5
:103E900002900690ADF8143023AE17D04C1E229A33
:103EA000049433464FF6FF7702A9284607940196FB
:103EB000ADF8167000F030F8421C1BDB029B0022AC
:103EC0001A701DB0BDE8F04002B0704733464FF69F
:103ED000FF77229A049402A9284607940196ADF828
:103EE000167000F019F8431C07DB1DB0BDE8F04068
:103EF00002B070478B232B60E0E78B232B601DB053
:103F0000BDE8F04002B070478B232B604FF0FF30CC
:103F1000EBE700BF580600202DE9F04FC1B00C467A
:103F2000099115460E930A9002F00EFB0368179351
:103F3000184603F0E5F9A38916901E0603D52369F8
:103F4000002B01F01A8100231A4612932593249323
:103F500019930B93DFF864A4149230AB2393994622
:103F60001592A84698F800304446EBB1252B02D1B3
:103F70001AE0252B03D014F8013F002BF9D1C8EB30
:103F800004058DB1249B259AC9F8008001332A4489
:103F9000072BC9F804502592249300F3A68009F159
:103FA00008090B9B2B440B932378002B00F0A68071
:103FB00000231A468DF86F3019460C9307934FF083
:103FC000FF3B637804F101085D4608F10108A3F1A5
:103FD0002000582800F22584DFE810F0880323042D
:103FE000230490032304230423042304230423042D
:103FF0009703A50323045D00E2002304FE000501EE
:104000000501050105010501050105010501050180
:104010002304230423042304230423042304230468
:1040200023042304150181022304810223042304B1
:1040300023042304C60223042304CD0223042304FF
:10404000230423042304F702230423042503230465
:104050002304230423042304230423042304230428
:1040600023046603790381028102810281037903BB
:1040700023042304D1032304DB03A3006400EE0321
:104080002304F5032304AA0323042304BC030C988C
:104090000E9340420C90079B43F00403079398F85B
:1040A000003092E70E98AB46002104688DF86F103F
:1040B000071D0798302378228B458DF870304FF01C
:1040C00000058DF8712040F00203C0F2C78320F094
:1040D000800343F00203079354EA05030E9700F0B0
:1040E00093830F461192B348CEE223AA09990A9806
:1040F00003F074F948B90DF1C00952E7259B23B1CB
:104100000A98099923AA03F069F9099B9B8913F07E
:10411000400F0B9B18BF4FF0FF33184641B0BDE86E
:10412000F08F1193AB46002A41F03382079A12F0C8
:10413000200300F02E820E9F073727F00703002789
:1041400003F10801BB450E91D3E900458DF86F706E
:10415000C0F2798722F08003079354EA050300F048
:10416000758330AEE20842EA4572E90804F00703BD
:104170000D461446303354EA050206F8013DF1D1EC
:10418000079AD10740F18480302B00F081803022E3
:10419000731E06F8012C30AAD21A0D921E467AE040
:1041A00098F800302A2B08F1010401F0B981A3F13D
:1041B0003000092898BF002501F26C8114F8013BFA
:1041C00005EB850500EB4505A3F130000928F5D97D
:1041D00045EAE575A046FAE6079B43F0800307939E
:1041E00098F80030F1E6A3F1300000231C4618F8DF
:1041F000013B04EB840400EB4404A3F130000928E4
:10420000F5D90C94E3E61193AB46002A41F0AB815B
:10421000079B43F010030793079B980640F13085F6
:104220000E9F073727F00707D7E9002307F108019A
:104230000E9114461D46002A73F10003C0F25B85FF
:10424000BBF1000F9DF86F70C0F23885079B23F01B
:104250008003079354EA050300F0DB81002D08BFBB
:104260000A2CC0F0DB8130AE204629460A2200230A
:1042700003F088FD303206F8012D20462946002340
:104280000A2203F07FFD04460D4654EA0503EBD1F4
:1042900030AB9B1B0D930D9B5B45B8BF5B460893F2
:1042A0000023139317B1089B01330893079B13F066
:1042B00002030F9302D0089B02330893079B13F06D
:1042C0008403109340F0D7820C9B089A9D1A002D0E
:1042D00040F3D182102D2599249A374F27DD189667
:1042E00048461024B946099E2F460A9D04E0103F17
:1042F000102F00F1080016DD01322F4B24921031EF
:10430000072A259180E81800F1DD23AA31462846C6
:1043100003F064F800287FF4F8AE103F102F2599C1
:10432000249A30A8E8DC189E3D464F46814601326B
:104330006C18072A25942492C9F80070C9F8045013
:1043400000F328849DF86F7009F1080977B1249B68
:10435000013301340DF16F010122072B25942493C1
:1043600089E8060000F3A08309F108090F9B6BB1EF
:10437000249B013302341CA90222072B2594249389
:1043800089E8060000F39C8309F10809109B802B43
:1043900000F0D5820D9BC3EB0B07002F39DD074AD8
:1043A000249B0F92102F28DD22464FF0100B0A9D00
:1043B000099C0AE084A00008A0A0000850A0000802
:1043C000103F102F09F1080916DD01331032072BB9
:1043D0002592249389E8000CF2DD23AA2146284681
:1043E00002F0FCFF00287FF490AE103F102F259ABA
:1043F000249B0DF1C009E8DC144601330F9A249385
:104400003C44072B259489E8840000F3418309F19B
:104410000809079BDA0500F13082249B0D99C9F841
:10442000006001330C44072B2594C9F80410249331
:1044300000F3188309F10809079B59073FD50C9B26
:10444000089A9D1A002D3ADD102D249BBC4F23DDC8
:1044500022461026DDF828B0099C04E0103D102DFE
:1044600009F1080917DD0133B54924931032072BF0
:10447000259289E84200F1DD23AA2146584602F040
:10448000ADFF00287FF441AE103D102D259A249BEE
:104490000DF1C009E7DC144601332C44072B2594A9
:1044A0002493C9F80070C9F8045008DD23AA0999BB
:1044B0000A9802F093FF00287FF427AE259C0B9BFF
:1044C0000C9A08998A42ACBF9B185B180B93002C7E
:1044D00040F0D482002324930DF1C00942E51193EA
:1044E000AB46002A41F051800E9F073727F00703A3
:1044F00003F108020E921A6814925B681593159BDB
:10450000149D23F00044284621464FF0FF328D4B86
:10451000FFF7C4F9002840F0C284284621464FF036
:10452000FF32884BFFF79CF9002840F0B8841498BC
:10453000159900220023FFF789F9002840F04F87E2
:104540009DF86F70804E814B079921F08001079193
:10455000119903224FF0000B08924729D8BF1E463D
:104560000D92CDF84CB09DE6079B43F008030793EE
:1045700098F8003029E51193AB46002A41F01180EC
:10458000079B43F010030793079A12F020037FF470
:10459000D2AD079911F0100200F02C850E988DF81D
:1045A0006F30BBF1000F046800F104074FF0000505
:1045B000C0F248850A4622F08002079254EA0502BA
:1045C0000E9700F043811F46CBE51193AB46002ABE
:1045D00040F0E387079B43F010030793079A12F01C
:1045E000200300F032830E9F073727F007030027D0
:1045F00003F10801BB450E91D3E900458DF86F70BA
:10460000C0F25C8322F08003079354EA05037FF431
:1046100025AEBBF1000F00F0FE80002440AE303428
:1046200006F8414D34E61193AB46002A40F09787D7
:10463000079B47489D0640F197800E9F073727F05C
:104640000703D3E9004503F108020E92079A12F01E
:10465000010700F0418254EA050300F005859DF84A
:1046600044208DF871200027079A8DF86F70302351
:10467000BB458DF8703042F00203C0F2B58622F0DF
:10468000800343F00203079330AE230904F00F01C7
:1046900043EA05732A091C461546435C06F8013DAA
:1046A00054EA0503F1D1F3E50E9911930A688DF8E8
:1046B000982000230A461F468DF86F3004320123EC
:1046C0000893BB4613970E920D9326AEEEE5119319
:1046D000AB46002A3FF4A0AD8DF86F109CE5079B18
:1046E00043F04003079398F800306EE498F80030E8
:1046F00000297FF46AAC0122202166E4079B43F085
:104700000103079398F800305FE40E9C23680C9334
:1047100018460028234603F10403FFF6B8AC0E93B5
:1047200098F8003051E498F8003001222B214CE435
:104730001193AB46002A3FF451AF8DF86F104DE74F
:10474000A0A00008FFFFEF7F64A0000860A00008A1
:1047500070A000081193AB46002A40F02A87079BFF
:1047600099489D063FF569AF079BDC0640F135840B
:104770000E9A1346043314680E93002566E798F8E2
:1047800000306C2B00F0E284079840F01000079096
:104790001BE4002A40F00987079B9B0640F1068432
:1047A0000E9A0B991368CD170846043229460E92CB
:1047B000C3E90001FFF7D6BB079B43F02003079333
:1047C00098F8003001E40E9A1193166800248DF8D1
:1047D0006F40171D002E00F0CD85002DC0F218850A
:1047E0002A462146304602F07BF9002800F02A864E
:1047F000831B0D93A34623EAE3730E970893CDF82A
:104800004CB09DF86F704DE56F481192BBF1000FF1
:1048100040F073815F464FF0000BCDF834B030AEFE
:1048200039E51193002A40F0AC86119A002A3FF432
:1048300065AC002301211F4608918DF898208DF862
:104840006F309B4613930D9126AE2FE5BBF1000F01
:1048500000F0038600270024002582E45A480793CD
:10486000119254EA05030E974FF000077FF40CAF46
:104870000024002508E7259C68E5119B652B40F383
:10488000A9801498159900220023FEF7D5FF00286F
:1048900000F03581249B4D4AC9F8002001330134D2
:1048A0000122072B25942493C9F8042000F3E88300
:1048B00009F108091D9B129A934203DB079BDB0752
:1048C0007FF5BAAD249B1699179AC9F800200133D9
:1048D0000C44072B2594C9F80410249300F340845A
:1048E00009F10809129B5D1E002D7FF7A5AD384A1E
:1048F000249B0F92102D40F3E68110260A9FDDF8CD
:1049000024B005E009F10809103D102D40F3DB81CA
:1049100001331034072B25942493C9F800A0C9F85B
:104920000460EFDD23AA5946384602F057FD0028FF
:104930007FF4EBAB259C249B0DF1C009E4E70C9BB5
:10494000089A9F1A002F7FF725AD214A249B0F92CA
:10495000102F2BDD4A462146B946102537460A9CC2
:10496000099E06E0A9F11009B9F1100F02F1080241
:1049700018DD01331031072B25912493C2F800A0D4
:104980005560EFDD23AA3146204602F027FD0028BE
:104990007FF4BBABA9F11009B9F1100F2599249B45
:1049A00030AAE6DC3E460C464F46914601330F9A4C
:1049B00024933C44072B259489E8840000F3458226
:1049C00009F10809E6E400BF84A0000838A0000847
:1049D00050A00008129B249D012B40F30882013552
:1049E00001340123072D25942495C9F80060C9F8E6
:1049F000043000F30D8209F10809169A179BC9F8D3
:104A0000003001351444072D25942495C9F804205D
:104A100000F30E8209F10809002314981599002269
:104A2000FEF70AFF129B002840F0C380013B0135CE
:104A300001361C44072D24952594C9F80060C9F857
:104A4000043000F3F58009F10809199AC9F8042027
:104A5000013514441FAB072D25942495C9F8003067
:104A60007FF7E8AC23AA09990A9802F0B7FC00285E
:104A70007FF44BAB259C0DF1C009DDE423AA099915
:104A80000A9802F0ABFC00283FF424ADFFF73DBBD1
:104A900023AA09990A9802F0A1FC00287FF435ABFB
:104AA000259C0DF1C009B4E423AA09990A9802F0E3
:104AB00095FC00287FF429AB259C0DF1C00955E435
:104AC00023AA09990A9802F089FC00287FF41DABFB
:104AD000259C0DF1C00959E4BBF1000F8DF86F70F2
:104AE000C0F2DA8222F08003079354EA05037FF4D0
:104AF000CBADBBF1000F3FF48DAE0027B8E61D9D96
:104B0000002D40F3CC82139B129A9342A8BF134608
:104B1000002B1D460DDD249BC9F8006001332C4499
:104B2000072B2594C9F80450249300F3A38309F1BB
:104B30000809139B002DA8BF5B1B002B1D4640F3EB
:104B4000F680BA4A249B0F92102D40F380822246B1
:104B50001027DDF828B0099C05E009F10809103D8F
:104B6000102D40F3738201331032072B25922493CA
:104B7000C9F800A0C9F80470EFDD23AA2146584601
:104B800002F02CFC00287FF4C0AA259A249B0DF18A
:104B9000C009E4E723AA09990A9802F01FFC00283B
:104BA0007FF4B3AA9DF86F70259C0DF1C009FFF743
:104BB000CDBB5E1E002E7FF748AF9C4B0F93102E8F
:104BC0002CDDCDF834801027B046DDF828B0099EE2
:104BD00006E0A8F11008B8F1100F09F108091ADD74
:104BE00001351034072D25942495C9F800A0C9F883
:104BF0000470EEDD23AA3146584602F0EFFB002890
:104C00007FF483AAA8F11008B8F1100F259C249D09
:104C10000DF1C009E4DC4646DDF834800F9B013518
:104C20003444072D2594249589E848007FF70BAF7D
:104C300023AA09990A9802F0D1FB00287FF465AAFB
:104C4000259C249D0DF1C009FFE6079911F0100283
:104C500000F008810E988DF86F30BBF1000F0468EA
:104C600000F104074FF0000526DB0A4622F080021F
:104C7000079254EA05020E971F467FF4EFAAC8E494
:104C8000079BD9062AD4079B5A0627D50E99B1F956
:104C900000400431E51722462B460E91FFF7CBBAB0
:104CA0000E998DF86F30BBF1000F0C6801F104070D
:104CB0004FF0000580F245820E971F4654EA050327
:104CC0007FF4CCAAAAE401330F9A24932C44072B37
:104CD000259489E824007FF7ADABC3E60E9A1468EB
:104CE00013460433E51722460E93002A2B4673F130
:104CF0000003BFF6A5AA64424FF02D0765EB4505FA
:104D0000BBF1000F8DF86F70FFF6A8AA079B23F088
:104D100080030793FFF7A2BA23AA09990A9802F021
:104D20005DFB00287FF4F1A9259C0DF1C009139AC1
:104D30001D9B32441746129A934247DB079AD507C8
:104D400044D412990E44F51BCB1A9D42A8BF1D46B0
:104D5000002D2E460DDD249AC9F8007001322C4436
:104D6000072A2594C9F80450249200F3128309F10C
:104D70000809002EACBF9D1B1D46002D7FF75CABC4
:104D80002A4A249B0F92102D9DDD10260A9FDDF8E4
:104D900024B004E009F10809103D102D93DD013322
:104DA0001034072B25942493C9F800A0C9F8046097
:104DB000F0DD23AA5946384602F010FB00287FF4A4
:104DC000A4A9259C249B0DF1C009E5E7249A169817
:104DD0001799C9F8001001320444072A2594C9F82C
:104DE0000400249200F3A58209F10809A9E7079BB2
:104DF000D8073FF5F4AD013501340123072D259483
:104E00002495C9F80060C9F804307FF71CAE0FE79D
:104E100023AA09990A9802F0E1FA00287FF475A9FB
:104E2000259C249D0DF1C009E7E500BF50A00008B6
:104E300023AA09990A9802F0D1FA00287FF465A9FB
:104E4000259C249D0DF1C009E6E523AA09990A983D
:104E500002F0C4FA00287FF458A9259C0DF1C0097E
:104E6000FFF798BA079911F040033FF419AF0E9875
:104E70008DF86F200346BBF1000F03F10403048893
:104E80004FF00005C0F2B98121F08001079154EA8A
:104E900005010E9317467FF4E1A9FFF7BABB149CF6
:104EA00022462046159C23462146FEF7F7FC0028A3
:104EB00040F01583119BBBF1FF3F23F020030D93BE
:104EC00000F07682472B00F09281079B43F48073B9
:104ED0001093159B1F1E149B0893BBBF3B4603F109
:104EE000004700232D230F93119B662B00F0638254
:104EF000462B00F05E810D9B089A452B21A81EA928
:104F00000CBF0BF101055D46049003911DA8022121
:104F10003B460290019500910A9800F0E9FB119B35
:104F2000672B064640F07D82079BDA0740F1BF827F
:104F300074190898394600220023FEF77DFC0028EA
:104F400040F0A481219B9C4206D930215A1C219219
:104F50001970219B9C42F9D89B1B12930D9B472BE8
:104F600000F08181119B652B40F36A82119B662BB7
:104F70001D9B139300F04782139A12998A42C0F244
:104F80003682079BD90700F1898222EAE2730D92EB
:104F9000672211920F9A002A40F05B810893109BC0
:104FA000079393469DF86F70FFF77CB9079BDF0668
:104FB0000BD4079B5E0608D50E9A136804320E9236
:104FC000BDF82C201A80FEF7CDBF0E9A136804326C
:104FD0000E920B9A1A60FEF7C5BF079B0E9A13F04C
:104FE000400F134600F00E81043314880E93002501
:104FF000FFF72CBB079911F0400317D00E988DF8DE
:105000006F200346BBF1000F03F1040304884FF047
:105010000005C0F2F58021F08001079154EA0501F6
:105020000E933FF413AC1746FFF79BB80E998DF81B
:105030006F30BBF1000F0C6801F104074FF0000561
:1050400080F281800E970027FFF78BB8144601335A
:105050000F9A24932C44072B259489E824003FF7CA
:105060005BAE09F1080962E60027BB458DF86F7059
:10507000FFF6FEAB079B23F080030793FFF7C6BB49
:1050800023AA09990A9802F0A9F900287FF43DA8FB
:10509000259C0DF1C0090DE40E9FFFF7E2BB249B98
:1050A000B14AC9F80020013301340122072B2594AD
:1050B0002493C9F804206FDC09F108092DB9129B6B
:1050C0001BB9079BDF077FF5B7A9249B1699179A91
:1050D000C9F8002001330C44072B2594C9F80410AB
:1050E000249300F3C98109F108096D42002D40F3B2
:1050F000A3809E4A0F92102D40F32981224610274B
:10510000DDF828B0099C05E009F10809103D102DD3
:1051100040F31C8101331032072B25922493C9F8E8
:1051200000A0C9F80470EFDD23AA2146584602F01A
:1051300055F900287EF4E9AF259A249B0DF1C009AA
:10514000E4E7079A92E5079AFFF735BA079B43F021
:105150002003079308F1010898F80030FEF735BFE7
:1051600023AA09990A9802F039F900287EF4CDAFF4
:10517000259C0DF1C009FFF7B5BB40210A9801F04D
:10518000F1F9099A10601061002800F0F381099A82
:1051900040235361FEF7D7BE23AA09990A9802F06B
:1051A0001DF900287EF4B1AF1D9D259C0DF1C009AD
:1051B00084E721A81EA9049003911DA80321029051
:1051C000089ACDF804B03B4600910A9800F090FA96
:1051D0005D460646119B462B06EB05047FF4A9AEFF
:1051E0003378302B00F06D811D9D2C44A1E6BBF17E
:1051F000000F08BF4FF0010B67E60E9317465DE501
:105200000E9320E7043314680E930025FFF71EBAAF
:10521000304602F075F8A34603460D90FFF7EBBA4F
:1052200023AA09990A9802F0D9F800287EF46DAFF4
:10523000259C249B0DF1C0091299C9F80060013327
:105240000C44072B25942493C9F804107FF7F2A887
:1052500008E42D270893109B07938DF86F704FF08B
:10526000000BFFF720B81D9BDD1C11DB9B450FDBFE
:10527000139381E623AA09990A9802F0AFF800284F
:105280007EF443AF259C0DF1C00952E4234663E64A
:10529000119A023A1192013B002B9DF844201D9374
:1052A000B8BF5B428DF87C20B4BF2D222B22092B86
:1052B0008DF87D2040F3FD800DF18B0004462C4AD3
:1052C00082FB0321DA17C2EBA10202EB8201A3EBFE
:1052D000410303F13001092A134604F8011DEEDCF5
:1052E00021463033DAB201F8012D884240F23F8185
:1052F0000DF17E01234601E013F8012B01F8012B8B
:105300009842F9D1431C1B1B0DF17E0213441FAAC6
:105310009B1A129A1993012A13440D9340F3F680B5
:105320000D9B169A134400220D93139223EAE37304
:1053300030E623AA09990A9802F050F800287EF472
:10534000E4AE1D9B259C0DF1C009FAE4144601331F
:105350000F9A24932C44072B259489E824003FF7C7
:105360005FAF09F1080967E738A0000850A00008FE
:1053700067666666062D2B4628BF06230D9323EA33
:10538000E373B3460E971396374608938B4EFEF79A
:1053900089BF23AA09990A9802F020F800287EF410
:1053A000B4AE1D9B129A259CD31A0DF1C009E0E4FE
:1053B0004FF0060B89E521A81EA9049003911DA8B2
:1053C00003210290089ACDF804B03B4600910A9858
:1053D00000F08EF95D46064600EB0B0400E72D2732
:1053E0008DF86F70FFF7AEB80793FFF74DB9169AB7
:1053F000129B1344139A0D93002A7FDD672223EA40
:10540000E3731192C6E5002B40F39880BBF1000FC7
:105410006BD1079AD40768D41A460D9223EAE37336
:10542000B8E5119B472B7FF483AD079BDB073FF566
:10543000D1AE219B9B1B12930D9B472B3FF413AFC7
:105440001D9B28E725EAE5730E9708930D95834683
:1054500013909DF86F70FEF725BF079BDB075F4633
:1054600005D540AE302306F8413DFEF711BFCDF81B
:1054700034B030AEFEF70FBF23AA09990A9801F0A5
:10548000ADFF00287EF441AE1D9D259C249B0DF1AF
:10549000C0092AE6A0460025FEF799BD169A139B7F
:1054A000134467220D93119223EAE37372E5219B63
:1054B00052E5303330228DF87F308DF87E2020ABDE
:1054C00025E70898394600220023FEF7B5F90028A1
:1054D0007FF48AAEC5F101051D952C4429E5384EAF
:1054E000384B9DF86F70FFF72FB8139B169A9D18D5
:1054F00005EB0B030D9323EAE3734BE5139B0D9A26
:10550000C3F101031A4413460D9277E7079B13F08A
:1055100001037FF405AF13930D9B23EAE37339E591
:105520000E9898F8013005680430002D0E90A046C2
:10553000BEF64BAD4FF0FF35FEF747BDBBF1000F98
:1055400002D1079BD80707D5169B5D1C05EB0B0303
:105550000D9323EAE3731DE501230D931AE58DF8FE
:105560006F10FFF765B88DF86F10FEF751BE0DF1A3
:105570007E03CCE60A9A0C2313604FF0FF30FEF74F
:10558000CDBD8DF86F10FFF750B98DF86F10FEF795
:10559000ABBF8DF86F10FEF7C9BD8DF86F10FFF728
:1055A00019B88DF86F10FEF7EBBF8DF86F10FFF78D
:1055B000F3B88DF86F10FFF7D2B800BF98A00008BD
:1055C0006CA0000868A0000802690B69934200F310
:1055D0008D802DE9F04F03F1FF3801F1140700F140
:1055E000140B57F828205BF828304FEA880483B062
:1055F0000132B3FBF2F90BEB0403009407EB040A4E
:105600000193B9F1000F39D00025BC46DE462B4688
:105610005CF8046BDEF80020B4B209FB0455360CCC
:105620002C0C09FB0644ADB25B1BA6B213FA82F345
:10563000C6EB124606EB23469BB243EA0643E2451D
:105640004EF8043B4FEA14454FEA2643E0D2009B54
:105650005BF8033093B9019C231F9B450CD254F88F
:10566000043C4BB9A4F1080302E01A68043B1AB9E0
:105670009B4508F1FF38F8D3C0F81080044601F0CC
:1056800025FD00282EDB09F101095D46002357F8AE
:10569000041B28688AB29A1A090C12FA80F2C1EB2C
:1056A000104303EB224391B241EA0341BA4545F866
:1056B000041B4FEA2343EAD25BF828200BEB880354
:1056C00082B91A1F93450BD253F8042C42B9083BF8
:1056D00002E01A68043B1AB99B4508F1FF38F8D379
:1056E000C4F81080484603B0BDE8F08F0020704732
:1056F0002DE9F04F016C97B08146239C92469B4662
:1057000049B1426C4A60012393408B6001F0FCFA7E
:105710000023C9F84030BBF1000FD84633DB00232B
:105720002360A54B1A4608EA0303934214D050465F
:10573000594600220023FEF77FF8054648B3229A17
:1057400001231360249B002B00F0C5809B48186048
:10575000013817B0BDE8F08F229A42F20F73136040
:10576000BAF1000F00F0A2809548249B002BF0D0E6
:10577000C378002B00F0B18000F10803249A136075
:1057800017B0BDE8F08F01232BF000482360C3461B
:10579000C7E714AA15AB0192009352465B464846F0
:1057A00001F03EFD5FEA1854089040F08880149D97
:1057B000159C2C4404F23243202B40F39182C3F118
:1057C000400304F2124008FA03F82AFA00F040EA13
:1057D0000800FDF753FD0123013CA1F1F87110937E
:1057E0000022784BFDF70CFC6DA3D3E90023FDF7F5
:1057F000BBFD6DA3D3E90023FDF704FC064620465C
:105800000F46FDF74BFD6AA3D3E90023FDF7ACFD7E
:1058100002460B4630463946FDF7F4FB06460F4676
:1058200002F088FA00220490002330463946FEF741
:105830000DF8002840F03082049E162E00F22982D6
:10584000614B03EBC603D3E9000152465B46FEF70A
:105850001BF8002800F04982731E049300230C9368
:105860002C1B631E029300F1328200230593049BDC
:10587000002BC0F22382029A0B9311461944002395
:1058800002910A93209B092B29D8052B40F35886B7
:10589000043B20930025209B023B032B00F235861E
:1058A000DFE813F02C03280237035904444B474A1E
:1058B000C8F31300002814BF1846104655E7CBF371
:1058C000130343F07F5110955046A4F2FF3441F486
:1058D0004011149D84E73E483BE7C31C4EE700217E
:1058E000C9F844104846209101F0E8F94FF0FF3321
:1058F0000693209A0D93012307902192C9F8400046
:105900000993159B002BC0F2D180049A0E2A00F354
:10591000CD802D4B03EBC203D3E90034CDE9023433
:10592000219B002BC0F2008356465F4650465946E5
:10593000DDE902AB52465B46FDF740FE02F0FAF9A4
:105940000446FDF7ABFC52465B46FDF70DFD0B46EA
:10595000024639463046FDF753FB079D04F13003FC
:105960002B70069B012B06460F4605F1010562D000
:105970000022184BFDF7F8FC0022002306460F46D4
:10598000FDF75AFF00287ED1CDF81490DDF818A05D
:10599000DDF81CB0DDE9028929E000BFAFF300802B
:1059A00061436F63A787D23FB3C8608B288AC63F25
:1059B000FB799F501344D33F0000F07F39A00008CB
:1059C000BCA000080000F83FC0A00008B0A000087C
:1059D00038A0000800002440FDF7C6FC0022002388
:1059E00006460F46FDF728FF002840F0B7834246E1
:1059F0004B4630463946FDF7E1FD02F09BF904467F
:105A0000FDF74CFC42464B46FDF7AEFC02460B460A
:105A100030463946FDF7F4FA04F1300E05F801EB93
:105A2000CBEB050ED64506460F464FF00002B04BB5
:105A3000D2D1DDF8149032463B4630463946FDF768
:105A4000E1FA06460F4602460B46DDE90201FDF784
:105A5000FDFE40B932463B46DDE90201FDF7ECFEB2
:105A600088B1E3070FD515F8014C079A6B1E04E0C7
:105A70009A4200F02C8413F8014D392C03F10105F2
:105A8000F6D001341C700899484601F03DF9002217
:105A9000049B2A70229A01331360249B002B00F090
:105AA000A78307981D6017B0BDE8F08F099A002AF8
:105AB00000F01281209A012A40F35882069B0A9A2C
:105AC0005F1EBA42C0F29783D71B069B002BC0F221
:105AD0008A84059D069B059A1A440592029A012123
