:020000040800F2
:100000000008002089010008E5010008E50100085A
:10001000E5010008E5010008E50100080000000016
:10002000000000000000000000000000E5010008E2
:10003000E501000800000000E5010008E5010008F6
:10004000E5010008E5010008E5010008E5010008F8
:10005000E5010008E5010008E5010008E5010008E8
:10006000E5010008E5010008E5010008E5010008D8
:10007000E5010008E5010008E5010008E5010008C8
:10008000E5010008E5010008E5010008E5010008B8
:10009000E5010008E5010008E5010008E5010008A8
:1000A000E5010008E5010008E5010008E501000898
:1000B000E5010008E5010008E5010008E501000888
:1000C000E5010008E5010008E5010008E501000878
:1000D000E5010008E5010008E5010008E501000868
:1000E000E5010008E5010008E5010008E501000858
:1000F000E5010008E5010008E5010008E501000848
:10010000E5010008E5010008E5010008E501000837
:10011000E5010008E5010008E5010008E501000827
:10012000E5010008E5010008E5010008E501000817
:10013000E5010008E5010008E5010008E501000807
:10014000E5010008E5010008E5010008E5010008F7
:10015000E5010008E5010008E5010008E5010008E7
:10016000E5010008E5010008E5010008E5010008D7
:10017000E5010008E5010008E5010008E5010008C7
:10018000E5010008E501000880B582B000AF104B22
:100190007B60104B3B6007E03B681A1D3A607A6851
:1001A000111D796012681A603B680B4A9342F3D3C1
:1001B0000A480B494FF000028842B8BF40F8042BB0
:1001C000FADB00F013F800BF0837BD4680BD00BF62
:1001D000840C000800000020000000200000002027
:1001E0000000002080B400AFFEE700BF80B500AF84
:1001F00000F038F900F0DEF94FF4FC71014800F02E
:1002000013FAFEE78C0A000880B483B000AF786070
:100210000B46FB70FB78002B06D00949084B1A6B84
:100220007B6813430B6306E00549054B1A6B7B683B
:10023000DB4313400B6300BF0C37BD4680BC7047E7
:100240000038024080B483B000AF78600B46FB708A
:10025000FB78002B06D00949084B1A6C7B681343C6
:100260000B6406E00549054B1A6C7B68DB431340C1
:100270000B6400BF0C37BD4680BC7047003802409D
:1002800080B487B000AF7860396000237B610023C1
:100290003B610023FB6000237B6176E001227B69E8
:1002A00002FA03F33B613B681A683B691340FB6049
:1002B000FA683B699A4265D17B681A687B695B0082
:1002C000032101FA03F3DB431A407B681A607B6861
:1002D0001A683B681B7919467B695B0001FA03F3D6
:1002E0001A437B681A603B681B79012B03D03B687B
:1002F0001B79022B2ED17B689A687B695B000321F6
:1003000001FA03F3DB431A407B689A607B689A68C2
:100310003B685B7919467B695B0001FA03F31A437A
:100320007B689A607B685A687B699BB21946012397
:100330008B40DB431A407B685A607B685B683A6895
:10034000927911467A6992B201FA02F292B21A4394
:100350007B685A607B68DA687B699BB25B0003212B
:1003600001FA03F3DB431A407B68DA607B68DA68E2
:100370003B68DB7919467B695B0001FA03F31A439A
:100380007B68DA607B6901337B617B690F2B85D9E0
:1003900000BF1C37BD4680BC704700BF80B483B02F
:1003A00000AF78600B467B807B687A881A8300BF39
:1003B0000C37BD4680BC704780B483B000AF786016
:1003C0000B467B807B687A885A8300BF0C37BD461A
:1003D00080BC704780B485B000AF78600B467B80EE
:1003E00013467B700023FB600023BB607A787B8818
:1003F00003F007039B0002FA03F3FB607B88DB0832
:100400009BB218467B88DB089BB21A467B68083291
:1004100053F822207B8803F007039B000F2101FA89
:1004200003F3DB4302EA03017B6800F1080243F8AF
:1004300022107B88DB089BB21A467B68083253F88F
:100440002220FB681343BB607B88DB089BB21A4603
:100450007B680832B96843F8221000BF1437BD46E4
:1004600080BC704780B500AF124A124B1B6843F046
:10047000010313600F4B00229A600E4A0D4B1B685C
:1004800023F0847323F4803313600A4B0A4A5A60C2
:10049000084A084B1B6823F480231360054B002295
:1004A000DA6000F00DF8054B4FF000629A6000BF73
:1004B00080BD00BF003802401030002400ED00E095
:1004C00080B483B000AF00237B6000233B60354ADB
:1004D000344B1B6843F480331360324B1B6803F4C6
:1004E00000333B607B6801337B603B68002B03D1AA
:1004F0007B68B3F5A06FF0D12A4B1B6803F400337F
:10050000002B02D001233B6001E000233B603B68ED
:10051000012B42D1234A234B1B6C43F080531364BD
:10052000214A214B1B6843F4804313601D4A1D4B35
:100530009B6893601B4A1B4B9B6843F4004393608A
:10054000184A184B9B6843F4A0539360154B174A05
:100550005A60144A134B1B6843F08073136000BF4A
:10056000104B1B6803F00073002BF9D0104B40F2C6
:1005700005621A600B4A0B4B9B6823F003039360E0
:10058000084A084B9B6843F00203936000BF054B89
:100590009B6803F00C03082BF9D100BF0C37BD4654
:1005A00080BC70470038024000700040085440078B
:1005B000003C024080B500AF00F0AEF800F0C8F893
:1005C000002000F06FF8002000F054F9012000F046
:1005D0006BF9012000F082F9012000F099F9012067
:1005E00000F02EF90A2000F0ADF9012000F042F9E8
:1005F0000021212000F070F80021C02000F06CF8EC
:100600000021142000F068F80021062000F064F8B2
:100610000021202000F060F800F026F800210C20D6
:1006200000F05AF800BF80BD80B584B000AF78609C
:1006300039600023FB720023FB600CE0FB687A68E2
:1006400013441B78FB72FB7A0121184600F044F832
:10065000FB680133FB60FA683B689A42EEDB00BF3F
:100660001037BD4680BD00BF80B582B000AF00230B
:10067000FB710FE00023BB7106E00121002000F0B8
:100680002BF8BB790133BB71BB79532BF5D9FB79BF
:100690000133FB71FB79052BECD900BF0837BD4650
:1006A00080BD00BF80B582B000AF0346FB71FB790F
:1006B000002B05D14FF400710648FFF76FFE04E0F0
:1006C0004FF400710348FFF777FE00BF0837BD46BF
:1006D00080BD00BF0004024080B582B000AF034679
:1006E0000A46FB711346BB71002000F0A9F8BB79E4
:1006F000002B03D1002000F0D7F802E0012000F029
:10070000D3F8FB79184600F071F8012000F098F852
:1007100000BF0837BD4680BD80B582B000AF4FF442
:10072000F0533B6003237B7101233B710023BB71BA
:1007300001210220FFF768FD3B4619460348FFF7F9
:100740009FFD00BF0837BD4680BD00BF00040240CA
:1007500080B588B000AF01214FF48040FFF772FDF3
:1007600001210220FFF750FD05220D211D48FFF752
:1007700031FE05220F211B48FFF72CFE4FF42043CA
:100780007B6002233B720023BB720123FB720223B6
:100790007B723B1D19461348FFF772FD4FF440432F
:1007A000BB814FF48273FB8100233B8202237B8257
:1007B0000123BB824FF40073FB8210233B83002391
:1007C0007B830723BB8307F10C031946064800F01F
:1007D000CFF80121044800F00FF900BF2037BD46D3
:1007E00080BD00BF000402400038004080B582B0E8
:1007F00000AF0346FB7100BF0221104800F02AF948
:100800000346002BF8D0FB799BB219460B4800F049
:1008100013F900BF0221094800F01CF90346002B20
:10082000F8D000BF8021054800F014F90346012BE1
:10083000F8D000BF0837BD4680BD00BF003800407B
:1008400080B582B000AF0346FB71FB79002B05D168
:100850004FF400610648FFF7AFFD04E04FF400617C
:100860000348FFF79BFD00BF0837BD4680BD00BFB2
:100870000004024080B582B000AF0346FB71FB79F3
:10088000002B05D14FF480610648FFF795FD04E089
:100890004FF480610348FFF781FD00BF0837BD4674
:1008A00080BD00BF0004024080B582B000AF0346A7
:1008B000FB71FB79002B05D14FF480510648FFF7FF
:1008C0007BFD04E04FF480510348FFF767FD00BF54
:1008D0000837BD4680BD00BF0004024080B582B02D
:1008E00000AF0346FB71FB79002B05D14FF40041AB
:1008F0000648FFF761FD04E04FF400410348FFF7AD
:100900004DFD00BF0837BD4680BD00BF000402405A
:1009100080B582B000AF0346FB71FB79002B05D197
:100920004FF400510648FFF747FD04E04FF4005133
:100930000348FFF733FD00BF0837BD4680BD00BF49
:100940000004024080B485B000AF78607B6842F25A
:10095000107202FB03F3FB6000BFFB685A1EFA60D3
:10096000002BFAD100BF1437BD4680BC704700BFD2
:1009700080B485B000AF786039600023FB817B686C
:100980001B88FB81FB8903F44153FB813B681A8878
:100990003B685B8813439AB23B689B8813439AB2C7
:1009A0003B68DB8813439AB23B681B8913439AB2B6
:1009B0003B685B8913439AB23B689B8913439AB2A5
:1009C0003B68DB8913439AB2FB891343FB817B6845
:1009D000FA891A807B689B8B9BB223F400639AB2DE
:1009E0007B689A833B681A8A7B681A8200BF143737
:1009F000BD4680BC704700BF80B483B000AF786054
:100A00000B46FB70FB78002B08D07B681B889BB2E1
:100A100043F040039AB27B681A8007E07B681B882A
:100A20009BB223F040039AB27B681A8000BF0C3758
:100A3000BD4680BC704700BF80B483B000AF786013
:100A40000B467B807B687A889A8100BF0C37BD4655
:100A500080BC704780B485B000AF78600B467B8067
:100A60000023FB737B681B899AB27B8813409BB27F
:100A7000002B02D00123FB7301E00023FB73FB7BFF
:100A800018461437BD4680BC704700BF0000000008
:100A90000000000000000000000000000000000056
:100AA0000000000000000000000000000000000046
:100AB00000000000000060600000000000808080F6
:100AC0008080000000000000000000000000000026
:100AD0000000000000000000000000000000000016
:100AE00000000000000000000000000000002030B6
:100AF0003018180C3C1E1E1F3F7F7F3F3F1F1F0FEB
:100B00000F0F070707070707030307070100000088
:100B10000001010101010103030707070F0D091877
:100B20000E1C3C3C78F8E080000000000000000053
:100B300000000000000000000000000004060300A8
:100B400000008000000084F8000203878E0C1C382F
:100B50003040000000000070F0E0F8FFFFFFFE787A
:100B60007C3E0C00000000000000000000000000BF
:100B700000000000000000000000FFFFFF7C60009C
:100B80000000000000000000000000000000000065
:100B90000000000000070330584EC3C1C0C6EFE19B
:100BA000E060602000000000000040F0F0FAFBF37D
:100BB000E3C1800000000000000000000000000011
:100BC0000000000000000000000000000000000322
:100BD0000100000000000000000000000000000014
:100BE0000000000000000000000000000000000005
:100BF0000003070706000000000000000000000FCF
:100C00002F0F0F4143070600000000000000000006
:100C100000000000000000000000000000000000D4
:100C200000000000000000000000000000000000C4
:100C300000000000000000000000000000000000B4
:100C400000000000000000000000000000000000A4
:100C50000000000000000000000000000000000094
:100C60000000000000000000000000000000000084
:100C70000000000000000000000000000000000074
:040C80000000000070
:0400000508000000EF
:00000001FF
